S3150800000010050020050100089D1C0008651A000857
S31508000010991C0008DD0100082920000800000000DE
S31508000020000000000000000000000000CD1C0008D1
S31508000030F101000800000000A11C0008CF1C000800
S315080000401F0100081F0100081F0100081F01000802
S315080000501F0100081F0100081F0100081F010008F2
S315080000601F0100081F0100081F010008E101000820
S315080000701F0100081F0100081F0100081F010008D2
S315080000801F0100081F010008710100081F01000870
S315080000901F0100081F0100081F0100081F010008B2
S315080000A01F0100081F0100081F0100081F010008A2
S315080000B01F0100081F010008000000001F010008BA
S315080000C01F01000800000000000000001F010008D2
S315080000D000000000092000081920000800000000A0
S315080000E01F0100081F0100081F010008DFF810D0D3
S315080000F000F02CF80048004783200008AFF3008082
S31508000100100500200648804706480047FEE7FEE738
S31508000110FEE7FEE7FEE7FEE7FEE7FEE7FEE7FEE7A9
S315080001205B1D0008ED000008D2B201E000F8012BC3
S31508000130491EFBD270470022F6E710B513460A4659
S3150800014004461946FFF7F0FF204610BD064C074D3A
S3150800015006E0E06840F0010394E807009847103489
S31508000160AC42F6D3FFF7C6FFBC200008DC20000827
S3150800017010B5024800F0F3F810BD0000100000208A
S3150800018070B5044600252068806800F0010018B3A1
S315080001902068806820F001002168886000F084FDEE
S315080001A0054613E000F080FD401B02280ED92068A2
S315080001B0806800F0010048B1A06A40F01000A06213
S315080001C0E06A40F00100E062012070BD20688068A6
S315080001D000F001000028E5D10020F6E700BFFEE7A1
S315080001E010B5024800F0D2FA10BD00004000002009
S315080001F0704772B600BFFEE77047000038B5024682
S3150800020000230020009000BF92F82400012801D1A5
S31508000210022038BD012082F8240000BF486807285C
S3150800022012D21068406B0C79641E04EB84051F24F7
S31508000230AC40A0430D796D1E05EB85050C68AC40F6
S3150800024020431468606327E048680D2812D21068B6
S31508000250006B0C79E41F04EB84051F24AC40A04313
S315080002600D79ED1F05EB85050C68AC402043146835
S31508000270206311E01068C06A0C790D3C04EB840514
S315080002801F24AC40A0430D790D3D05EB85050C6890
S31508000290AC4020431468E06208680A2812D3106844
S315080002A0C0680C780A3C04EB44050724AC40A0431C
S315080002B00D780A3D05EB45058C68AC40204314686B
S315080002C0E0600FE0106800690C7804EB4405072429
S315080002D0AC40A0430D7805EB45058C68AC4020433F
S315080002E0146820610868102802D00868112827D1E8
S315080002F0174C1068A0421ED11068806800F40000F0
S31508000300F0B91068806840F400001468A0600868B6
S31508000310102815D10F4800680F4CB0FBF4F000EB1D
S3150800032080004000009002E00098401E009000986F
S315080003300028F9D104E0906A40F020009062012379
S3150800034000BF002082F8240000BF184661E70000BD
S31508000350002401400000002040420F00704710B5FD
S3150800036004462068406800F0200020282FD1206825
S31508000370006800F00200022829D1A06A00F01000E7
S3150800038018B9A06A40F40070A0622068806800F47A
S315080003906020B0F5602F13D1207B88B920684068AB
S315080003A020F0200021684860A06A20F48070A062CE
S315080003B0A06A00F4805018B9A06A40F00100A06253
S315080003C02046FFF7CBFF6FF012002168086020680F
S315080003D0406800F0800080283BD12068006800F063
S315080003E00400042835D1A06A00F0100018B9A06AE4
S315080003F040F40050A0622068806800F4E040B0F540
S31508000400E04F0DD02068406800F48060D0B92068BD
S31508000410806800F46020B0F5602F13D1207B88B97E
S315080004202068406820F0800021684860A06A20F4AF
S315080004308050A062A06A00F4807018B9A06A40F0E3
S315080004400100A0622046FFF7D7FE6FF00C00216876
S3150800045008602068406800F0400040280FD12068F6
S31508000460006800F0010050B1A06A40F48030A06234
S31508000470204600F0A7F86FF001002168086010BD5B
S315080004802DE9F0410446002700250026A84614B9A0
S315080004900120BDE8F081A06810B1207D00B100BF41
S315080004A0A06A30B90020E06284F82400204600F0F3
S315080004B08BF82046FFF764FE0746A06A00F0100096
S315080004C0002873D1002F71D1A06A20F4885040F01B
S315080004D00200A062E16960680843217B40EA4100A6
S315080004E00643A068B0F5807F02D0A068012802D133
S315080004F04FF4807000E000200543207D012811D1CB
S31508000500207B38B9A069401E4FF4006141EA4030AB
S31508000510054307E0A06A40F02000A062E06A40F0C8
S315080005200100E0622068406820F469402843216899
S3150800053048602068806821490840304321688860FF
S31508000540A068B0F5807F02D0A068012802D14FF4D8
S31508000550807000E00020B0F5807F03D1208A401E1D
S315080005604FEA00582068C06A20F4700040EA080084
S315080005702168C8622068806811490840B04208D1DD
S315080005800020E062A06A20F0020040F00100A062AC
S3150800059011E0A06A20F0020040F01000A062E06AB4
S315080005A040F00100E062012705E0FFE7A06A40F09D
S315080005B01000A062012738466BE70000FDF7E1FF4F
S315080005C0FE0E1FFF7047000010B586B004460020D7
S315080005D0029003900490059025492068884245D1E9
S315080005E000BF2448806940F40070224988610846A3
S315080005F0806900F40070019000BF00BF00BF084684
S31508000600806940F0040088610846806900F00400AB
S31508000610019000BF00BF802002900320039002A92A
S31508000620154800F0B5F915481549086000204860D6
S315080006300021134881608021C16049000161890059
S31508000640416100218161C16100F06EF908B1FFF7CF
S31508000650D0FD00BF0A482062446200BF002211464E
S31508000660122000F0A7FB122000F094FB06B010BD84
S315080006700024014000100240000801400800024022
S31508000680400000200146002291F82100022808D0E7
S315080006900420886300BF002081F8200000BF0120E5
S315080006A070470868006820F00E000B681860086834
S315080006B0006820F001000B68186091F840300120AE
S315080006C09840CB6B5860012081F8210000BF0020BC
S315080006D081F8200000BF1046E2E7000070B5044626
S315080006E0002594F82100022803D00420A0630125E0
S315080006F048E02068006820F00E002168086020683D
S31508000700006820F00100216808601F4920688842B7
S3150800071001D1012026E01C4914312068884201D104
S3150800072010201FE0184928312068884201D1801519
S3150800073018E015493C312068884201D1801411E03F
S31508000740114950312068884202D14FF4803009E0BF
S315080007500D4964312068884202D14FF4801001E0C7
S315080007604FF08070084908394860012084F8210054
S3150800077000BF002084F8200000BF606B10B120463F
S31508000780616B8847284670BD0800024070B504466C
S31508000790E06B05682068066894F8401004208840D5
S315080007A02840002846D006F00400002842D02068D9
S315080007B0006800F0200028B92068006820F00400CE
S315080007C02168086057492068884201D1042027E03B
S315080007D0544914312068884201D1402020E051490B
S315080007E028312068884201D1001519E04D493C316D
S315080007F02068884202D14FF4804011E049495031BF
S315080008002068884202D14FF4802009E045496431C6
S315080008102068884202D14FF4800001E04FF08060E2
S31508000820404908394860E06A00287AD02046E16ADB
S31508000830884776E094F84010022088402840A0B304
S3150800084006F0020088B32068006800F0200040B96E
S315080008502068006820F00A0021680860012084F8F2
S31508000860210030492068884201D1022028E02D491C
S3150800087014312068884201D1202021E029492831F5
S315080008802068884201D140151AE026493C31206883
S31508000890884202D14FF4005012E0224950312068B4
S315080008A0884203D14FF400300AE017E01D4964314D
S315080008B02068884202D14FF4001001E04FF0007022
S315080008C018490839486000BF002084F8200000BF96
S315080008D0A06A30B32046A16A884722E094F84010FF
S315080008E0082088402840E0B106F00800C8B1206812
S315080008F0006820F00E002168086094F84010012076
S315080009008840E16B48600120A06384F8210000BF9D
S31508000910002084F8200000BF206B10B12046216B10
S31508000920884770BD080002400146002209B9012027
S315080009307047164B0868C01A1423B0FBF3F0800002
S31508000940086412480838C863022081F8210008683C
S31508000950026843F6F0708243D1E901031843CB6875
S3150800096018430B6918434B6918438B691843CB69BD
S31508000970184302430868026000208863012081F852
S315080009802100002081F8200000BFD1E708000240BE
S315080009902DE9F84703460022944666E14FF0010820
S315080009A008FA02F4D1F8008008EA0400A0427DD1D2
S315080009B0DFF8CCA2D1F80480A8EB0A09D0453AD0D2
S315080009C014DCB8F1030F50D009DCB8F1000F31D0B0
S315080009D0B8F1010F1CD0B8F1020F49D120E0B8F1E7
S315080009E0110F18D0B8F1120F42D11EE0B9F5881FC1
S315080009F025D006DCB9F5803F20D0B9F5801F37D160
S31508000A001AE0B9F5001F18D0B9F5041F30D117E060
S31508000A10D1F80CC02DE0D1F80C8008F1040C28E0C0
S31508000A20D1F80C8008F1080C23E0D1F80C8008F105
S31508000A300C0C1EE000BF00BF00BF00BF00BF00BF18
S31508000A40D1F80880B8F1000F02D14FF0040C0BE082
S31508000A50D1F80880B8F1010F03D14FF0080C1C61DA
S31508000A6002E04FF0080C5C6103E04FF0000C00E078
S31508000A7000BF00BFFF2801D8984601E003F104082B
S31508000A804646FF2802D84FEA820803E0A2F1080882
S31508000A904FEA88084746D6F800804FF00F0909FA4A
S31508000AA007F928EA09080CFA07F900E085E048EA98
S31508000AB00908C6F80080D1F8048008F08058B8F113
S31508000AC0805F7AD100BFDFF8BC81D8F8188048F07B
S31508000AD00108DFF8B091C9F81880C846D8F8188018
S31508000AE008F00108CDF8008000BF00BF4FEAB9380A
S31508000AF04FEA920958F829504FEA82784FEA18794E
S31508000B004FF00F0808FA09F825EA0805DFF8788192
S31508000B10434502D14FF000080FE0DFF870814345E6
S31508000B2002D14FF0010808E0DFF86481434502D19D
S31508000B304FF0020801E04FF003084FEA82794FEAC6
S31508000B40197908FA09F848EA0505DFF848814FEAED
S31508000B50920948F82950D1F8048008F48038B8F585
S31508000B60803F0AD1DFF83081D8F8008048EA0008CB
S31508000B70DFF82491C9F8008009E0DFF81C81D8F86D
S31508000B80008028EA0008DFF81091C9F80080D1F83B
S31508000B90048008F40038B8F5003F0FD1DFF8F88074
S31508000BA008F10408D8F8008048EA0008DFF8E89059
S31508000BB009F10409C9F800800EE055E0DFF8D8808D
S31508000BC008F10408D8F8008028EA0008DFF8C89079
S31508000BD009F10409C9F80080D1F8048008F48018DE
S31508000BE0B8F5801F0ED1DFF8B08008F10808D8F8EC
S31508000BF0008048EA0008DFF8A09009F10809C9F85A
S31508000C0000800DE0DFF8908008F10808D8F8008029
S31508000C1028EA0008DFF8809009F10809C9F8008079
S31508000C20D1F8048008F40018B8F5001F0ED1DFF8D3
S31508000C30688008F10C08D8F8008048EA0008DFF850
S31508000C40589009F10C09C9F800800DE0DFF84880D2
S31508000C5008F10C08D8F8008028EA0008DFF8389070
S31508000C6009F10C09C9F80080521CD1F8008028FA4D
S31508000C7002F8B8F1000F7FF491AEBDE8F8870000DE
S31508000C80000011100010024000080140000C01404D
S31508000C900010014008000140000401400AB101614A
S31508000CA001E00B04036170470148006870470000C3
S31508000CB004000020034800680349097808440149EC
S31508000CC008607047040000200C00002010B5084892
S31508000CD0006840F0100006490860032000F0A8F8F4
S31508000CE00F2000F007F800F02BF8002010BD0000D8
S31508000CF00020024070B504460E4800784FF47A7119
S31508000D00B1FBF0F00C490968B1FBF0F5284600F094
S31508000D10A3FC08B1012070BD102C07D20022214681
S31508000D20501E00F047F80548046001E00120F2E78C
S31508000D300020F0E70C00002000000020080000203A
S31508000D4008B500BF1148806940F001000F49886165
S31508000D500846806900F00100009000BF00BF00BF90
S31508000D600846C06940F08050C8610846C06900F06E
S31508000D708050009000BF00BF00BF0549486820F0BA
S31508000D80E06040F00070486000BF08BD00100240F7
S31508000D900000014001460846002809DB00F01F0351
S31508000DA001229A4043099B0003F1E023C3F800217E
S31508000DB000BF70472DE9F05F80460D4616460027AE
S31508000DC001F034F9074639462A46334601F007004A
S31508000DD0C0F1070ABAF1040F02D94FF0040A01E07C
S31508000DE0C0F1070AD14600F1040ABAF1070F02D288
S31508000DF04FF0000A01E0A0F1030AD4464FF0010AB9
S31508000E000AFA09FAAAF1010A0AEA020A0AFA0CFA1D
S31508000E104FF0010B0BFA0CFBABF1010B0BEA030BC2
S31508000E204AEA0B042146404601F008F9BDE8F09F5E
S31508000E3000BF00F00702064B19684FF6FF0319407A
S31508000E40044B0B4343EA0221014B196000BF70476C
S31508000E500CED00E00000FA05F8B50446002600256A
S31508000E60207800F0010000286BD000274348C069AD
S31508000E7000F0805070B900BF4048C06940F080500B
S31508000E803E49C8610846C06900F08050009000BF1E
S31508000E9000BF01273A48006800F48070B0B93848A6
S31508000EA0006840F4807036490860FFF7FDFE064684
S31508000EB006E0FFF7F9FE801B642801D90320F8BD78
S31508000EC02F48006800F480700028F2D02B48006A8A
S31508000ED000F440752DB3A08800F44070A84220D0D5
S31508000EE02648006A20F4407501202649086000203B
S31508000EF008602248056205F0010090B1FFF7D4FEAC
S31508000F00064608E0FFF7D0FE801B41F2883188428A
S31508000F1001D90320D3E71948006A00F00200002827
S31508000F20F0D01648006A20F44070616808431349F7
S31508000F300862012F04D10846C06920F08050C861B4
S31508000F4000BF207800F00200022807D10B4840684D
S31508000F5020F44040A168084308494860207800F01A
S31508000F601000102807D10548406820F48000E16881
S31508000F700843024948600020A1E70000001002402B
S31508000F80007000404004424270B504460D460CB954
S31508000F90012070BD5A48006800F00700A8420ED22A
S31508000FA05748006820F00700284355490860084656
S31508000FB0006800F00700A84201D00120E9E7207880
S31508000FC000F0020002281DD1207800F00400042851
S31508000FD005D14C48406840F4E0604A4948602078AA
S31508000FE000F00800082805D14648406840F46050DB
S31508000FF0444948604348406820F0F000A168084327
S3150800100040494860207800F0010078B360680128FC
S3150800101006D13C48006800F4003090B90120B8E7D2
S315080010206068022806D13748006800F0007040B9A9
S315080010300120AEE73348006800F0020008B9012035
S31508001040A7E73048406820F00300616808432D4947
S315080010504860FFF729FE064609E0FFF725FE801BD4
S3150800106041F28831884202D9032092E707E02548F1
S31508001070406800F00C006168B0EB810FEDD12048A4
S31508001080006800F00700A8420ED91D48006820F045
S31508001090070028431A4908600846006800F0070058
S315080010A0A84201D0012074E7207800F00400042843
S315080010B007D11448406820F4E060E1680843114904
S315080010C04860207800F00800082808D10D484068D4
S315080010D020F46050216940EAC1000A49486000F0DE
S315080010E03FF808494968C1F30311074A515CC840EB
S315080010F00649086006480068FFF7FCFD002048E737
S315080011000020024000100240A22000080000002033
S315080011100800002001480068704700000000002011
S3150800112000B5FFF7F7FF04494968C1F30221034AEE
S31508001130515CC84000BD000000100240B220000803
S3150800114000B5FFF7E7FF04494968C1F3C221034A1E
S31508001150515CC84000BD000000100240B2200008E3
S31508001160F0B585B00FF26C0C9CE8E01001A8A0E879
S31508001170E0101CA52D6800950021002200230024FC
S315080011800020194D696801F00C05F5B1042D02D04F
S31508001190082D19D101E0154819E001ADC1F38346C0
S315080011A0AC5D01F4803555B10F4D6D68C5F340450A
S315080011B01DF805200D4D6543B5FBF2F302E00C4D15
S315080011C004FB05F3184602E000BF084800BF00BF4D
S315080011D005B0F0BD02030405060708090A0B0C0D45
S315080011E00E0F1010010200000010024000127A00D3
S315080011F000093D00F8B504460CB90120F8BD207871
S3150800120000F00100002878D0F848406800F00C008B
S3150800121004280CD0F548406800F00C00082811D1C5
S31508001220F248406800F48030B0F5803F0AD1EF48B4
S31508001230006800F4003000285FD0606800285CD1A0
S315080012400120DBE700BF6068B0F5803F06D1E748BC
S31508001250006840F48030E549086028E0606858B9BD
S31508001260E248006820F48030E049086008460068D3
S3150800127020F4802008601AE06068B0F5A02F0BD132
S31508001280DA48006840F48020D849086008460068B3
S3150800129040F4803008600AE0D448006820F48030C2
S315080012A0D24908600846006820F48020086000BF1C
S315080012B0606888B1FFF7F8FC054606E0FFF7F4FC1E
S315080012C0401B642801D9032098E7C848006800F441
S315080012D000300028F2D010E0FFF7E6FC054606E0ED
S315080012E0FFF7E2FC401B642801D9032086E7BF48C4
S315080012F0006800F400300028F2D1207800F00200DF
S31508001300022857D1B948406800F00C0050B1B748D8
S31508001310406800F00C00082818D1B448406800F46A
S31508001320803098B9B148006800F0020020B1206901
S31508001330012801D0012061E7AC48006820F0F800D8
S31508001340616940EAC100A949086033E02069E8B14B
S315080013500120A7490860FFF7A7FC054606E0FFF746
S31508001360A3FC401B022801D9032047E79F480068D1
S3150800137000F002000028F2D09C48006820F0F8002F
S31508001380616940EAC1009949086013E0002098495C
S315080013900860FFF789FC054606E0FFF785FC401B59
S315080013A0022801D9032029E79048006800F00200C6
S315080013B00028F2D1207800F0080008282DD1A0696D
S315080013C0B8B101208B490860FFF76EFC054606E0B8
S315080013D0FFF76AFC401B022801D903200EE7834861
S315080013E0406A00F002000028F2D0012000F05AFC02
S315080013F013E000207F490860FFF756FC054606E023
S31508001400FFF752FC401B022801D90320F6E677486D
S31508001410406A00F002000028F2D1207800F00400AB
S31508001420042873D100277148C06900F0805070B94C
S3150800143000BF6E48C06940F080506C49C8610846D4
S31508001440C06900F08050009000BF00BF01276A48BD
S31508001450006800F48070B0B96748006840F480708E
S3150800146065490860FFF720FC054606E0FFF71CFC07
S31508001470401B642801D90320C0E65F48006800F4D1
S3150800148080700028F2D000BFE068012806D15748CE
S31508001490006A40F001005549086227E0E06858B93B
S315080014A05248006A20F00100504908620846006A5E
S315080014B020F00400086219E0E06805280BD14B48C3
S315080014C0006A40F00400494908620846006A40F08C
S315080014D0010008620AE04548006A20F00100434915
S315080014E008620846006A20F00400086200BFE06847
S315080014F0A0B1FFF7D9FB054609E0FFF7D5FB401B6E
S3150800150041F28831884202D9032077E622E037483B
S31508001510006A00F002000028EFD012E0FFF7C4FBD3
S31508001520054608E0FFF7C0FB401B41F288318842B8
S3150800153001D9032062E62D48006A00F0020000285F
S31508001540F0D1012F05D12948C06920F080502749DC
S31508001550C86100BFE069C8B32448406800F00C00C1
S31508001560082860D0E069022848D10020204908668A
S31508001570FFF79AFB054606E0FFF796FB401B022895
S3150800158001D903203AE61948006800F000700028DF
S31508001590F2D1206AB0F5803F07D11448406820F49C
S315080015A00030A168084311494860D4E90801084396
S315080015B00E49496821F4741108430C494860012012
S315080015C00B490866FFF770FB054607E03DE0FFF7A5
S315080015D06BFB401B022801D903200FE6034800686D
S315080015E000F000700028F2D02FE000000010024042
S315080015F00000424280044242007000400020144924
S315080016000866FFF751FB054606E0FFF74DFB401B52
S31508001610022801D90320F1E50E48006800F00070A1
S315080016200028F2D111E0E069012800D1E6E5094871
S31508001630466806F48031206A814204D106F47011A6
S31508001640606A814201D00120D8E50020D6E5000075
S31508001650000042420010024070B504462546681E46
S31508001660B0F1807F01D301200FE0681E4FF0E02122
S3150800167048610F214FF0FF3000F0E0FC00204FF0EA
S31508001680E021886107200861002070BD7047704717
S315080016902DE9F84F0446206805682068C668206862
S315080016A047694FF00009CA4605F00F09B9F1000F5E
S315080016B00AD105F0200038B106F0200020B12046F6
S315080016C000F081FBBDE8F88FB9F1000F71D007F083
S315080016D0010018B906F4907000286AD005F00100D8
S315080016E030B106F4807018B1206C40F00100206417
S315080016F005F0040030B107F0010018B1206C40F085
S315080017000200206405F0020030B107F0010018B1AC
S31508001710206C40F00400206405F0080048B106F08B
S31508001720200010B907F0010018B1206C40F008003D
S315080017302064206C68B305F0200028B106F020006C
S3150800174010B1204600F03FFB20684069C0F3801ABC
S31508001750206C00F0080010B9BAF1000F22D020461C
S3150800176000F006FB2068406900F04000B0B1206830
S31508001770406920F0400021684861A06B50B1564886
S31508001780A16B4863A06BFEF7A9FF10B1A06B416B74
S3150800179088470CE02046FFF77AFF08E02046FFF767
S315080017A076FF04E02046FFF772FF0020206489E7F1
S315080017B0FFE7206B012878D105F01000002874D0C7
S315080017C006F01000002870D000BF002000902068A6
S315080017D00068009020684068009000BF00BF20683D
S315080017E0406900F04000C0B3A06B006840681FFA6B
S315080017F080F8B8F1000F2FD0A08D40452CDDA4F855
S315080018002E80A06B806920281FD02068C06820F42D
S3150800181080702168C8602068406920F0010021684E
S3150800182048612068406920F040002168486120200E
S3150800183084F83E00002020632068C06820F010006D
S315080018402168C860A06BFEF71DFFA08DE28D801A87
S3150800185081B22046FFF71AFF34E7FFE7A08DE18D36
S31508001860401A1FFA80F8E08DE8B1B8F1000F1AD0D7
S315080018702068C06820F490702168C86020684069B4
S3150800188020F0010021684861202084F83E000020ED
S3150800189020632068C06820F010002168C8604146AF
S315080018A02046FFF7F3FE0DE7FFE705F0800030B1AD
S315080018B006F0800018B1204600F076FB02E705F036
S315080018C0400030B106F0400018B1204600F06BFA2F
S315080018D0F8E600BFF6E600005D1D000810B50446F0
S315080018E00CB9012010BDA06900B100E000BF94F852
S315080018F03D0028B9002084F83C00204600F028F86E
S31508001900242084F83D002068C06820F4005021682F
S31508001910C860204600F0CAFA2068006920F49040A2
S31508001920216808612068406920F02A00216848611A
S315080019302068C06840F400502168C8600020206410
S31508001940202084F83D0084F83E000020CAE7000005
S3150800195010B586B0044600200290039004900590C6
S315080019603B492068884237D100BF3A48806940F42D
S315080019708040384988610846806900F480400190B3
S3150800198000BF00BF00BF0846806940F004008861B8
S315080019900846806900F00400019000BF00BF4815A2
S315080019A00290022003900320059002A92A48FEF718
S315080019B0EFFF4FF48060029000200390049002A984
S315080019C02548FEF7E5FF002211462520FFF7F2F924
S315080019D02520FFF7DFF939E020492068884235D10C
S315080019E000BF1C48C06940F400301A49C86108465F
S315080019F0C06900F40030019000BF00BF00BF084670
S31508001A00806940F0040088610846806900F0040097
S31508001A10019000BF00BF042002900220039003201B
S31508001A20059002A90C48FEF7B3FF08200290002093
S31508001A300390049002A90848FEF7AAFF002211465F
S31508001A402620FFF7B7F92620FFF7A4F906B010BD40
S31508001A5000380140001002400008014000440040E0
S31508001A607047704700BFFEE70EB500200090019052
S31508001A7002901248124908600021114881600173DA
S31508001A8001754FF46021C16100200D4948600121AC
S31508001A900B480161FEF7F4FC08B1FEF7AAFB072024
S31508001AA00090012001900020029069460448FEF744
S31508001AB0A5FB08B1FEF79DFB0EBD00000024014002
S31508001AC01000002008B500BF0A48406940F0010030
S31508001AD0084948610846406900F00100009000BFC7
S31508001AE000BF002211460B20FFF764F90B20FFF711
S31508001AF051F908BD0010024000B585B000200190DC
S31508001B0002900390049000BF4348806940F010009B
S31508001B10414988610846806900F01000009000BFBE
S31508001B2000BF00BF0846806940F02000886108466B
S31508001B30806900F02000009000BF00BF00BF084683
S31508001B40806940F0040088610846806900F0040056
S31508001B50009000BF00BF00BF0846806940F008003B
S31508001B6088610846806900F00800009000BF00BF41
S31508001B7000224FF400512948FFF790F8002220214F
S31508001B802748FFF78BF800224FF480612548FFF7B6
S31508001B9085F84FF400500190012002900020039030
S31508001BA00320049001A91D48FEF7F2FE20200190AB
S31508001BB001200290002003900220049001A91848F1
S31508001BC0FEF7E6FE012001900320029001A91548C0
S31508001BD0FEF7DEFE4FF4806001900120029000209F
S31508001BE003900220049001A90E48FEF7D1FE4FF497
S31508001BF0807001900320029001A90948FEF7C8FEEB
S31508001C0018200190002002900120039001A90548A0
S31508001C10FEF7BEFE05B000BD0010024000100140F0
S31508001C2000080140000C014010B50B480B4908603C
S31508001C304FF4E1304860002108488160C1600161C5
S31508001C400C21416100218161C161FFF747FE08B19E
S31508001C50FEF7CFFA10BD00000038014084000020CE
S31508001C6010B50B480B4908604FF4E1304860002175
S31508001C7008488160C16001610C21416100218161D0
S31508001C80C161FFF72BFE08B1FEF7B3FA10BD0000DD
S31508001C9000440040C800002000BFFEE700BFFEE782
S31508001CA07047000008B508490968C9084FF47A72F0
S31508001CB0B1FBF2F14143009100BF00BF00994A1EF3
S31508001CC000920029F9D108BD00000020704710B520
S31508001CD0FEF7F0FF10BD00B593B0282109A8FEF75E
S31508001CE02AFA142104A8FEF726FA0020009001908B
S31508001CF0029003900120099000040A9000200B909E
S31508001D0001200D9002201090C10311914FF4E011AB
S31508001D10129109A8FFF76EFA08B1FEF76AFA0F20C2
S31508001D20049002200590002006904FF480600790EA
S31508001D3000200890022104A8FFF726F908B1FEF74B
S31508001D4058FA02200090800302906846FFF784F84C
S31508001D5008B1FEF74EFA13B000BD704770B50546D8
S31508001D606C6A0020E085E0842046FFF790FC70BD91
S31508001D700168C96821F490710268D16001684969EF
S31508001D8021F0010102685161016B012905D1016841
S31508001D90C96821F010010268D160202180F83E1040
S31508001DA000210163704710B504462068C06820F01A
S31508001DB040002168C860202084F83D002046FFF7CF
S31508001DC050FE002010BDF8B5044694F83E002228BF
S31508001DD069D1A068B0F5805F0CD1206950B900259B
S31508001DE0A66A20684068C0F308003080A06A801C94
S31508001DF0A06215E0A56A0026A068B0F5805F03D04A
S31508001E00A06828B9206918B920684068287004E0D5
S31508001E102068406800F07F002870A06A401CA06215
S31508001E20E08D401E80B2E085A8BB2068C06820F01F
S31508001E3020002168C8602068C06820F48070216886
S31508001E40C8602068406920F00100216848612020A8
S31508001E5084F83E00206B01281ED1002020632068EC
S31508001E60C06820F010002168C8602068006800F08B
S31508001E70100010280AD100BF0020009020680068D2
S31508001E80009020684068009000BF00BFA18D2046E2
S31508001E90FFF7FCFB03E004E02046FFF7E1FD002026
S31508001EA0F8BD0020FCE70220FAE7000070B50446FA
S31508001EB02168096921F44051E268114322681161D9
S31508001EC02269A1681143626941EA02052168C96865
S31508001ED041F20C62914329432268D160216849691D
S31508001EE021F44071A2691143226851612D4A216883
S31508001EF0914202D1FFF724F901E0FFF711F900EB4F
S31508001F00C00101EB001162689200B1FBF2F100EB2F
S31508001F10C00202EB001263689B00B2FBF3F2642373
S31508001F20B2FBF3F202EBC20303EB0212A1EB82014E
S31508001F30322202EB01116422B1FBF2F101F0F00149
S31508001F4000EBC00202EB001263689B00B2FBF3F2DF
S31508001F506423B2FBF3F201EB021200EBC00101EBC2
S31508001F60001163689B00B1FBF3F100EBC00303EBC0
S31508001F7000136668B600B3FBF6F36426B3FBF6F304
S31508001F8003EBC30606EB0313A1EB8301322303EB32
S31508001F9001116423B1FBF3F101F00F01114422682A
S31508001FA0916070BD00380140014691F83D00212836
S31508001FB028D18868B0F5805F0BD1086948B90A6AE4
S31508001FC01088C0F308000B685860086A801C08620D
S31508001FD005E00B6A581C086218780B685860C88CAC
S31508001FE0401E80B2C88458B90868C06820F08000CE
S31508001FF00B68D8600868C06840F040000B68D86075
S31508002000002070470220FCE710B50248FFF740FBA6
S3150800201010BD00008400002010B50248FFF738FB09
S3150800202010BD0000C800002000BFFEE70248006897
S31508002030C0F30220704700000CED00E010B5002840
S3150800204004DB0A07130E054A135406E00A07140EA2
S31508002050034A00F00F031B1FD45410BD00E400E030
S3150800206018ED00E002E008C8121F08C1002AFAD1DC
S3150800207070477047002001E001C1121F002AFBD1FA
S315080020807047FEF723FEFFF726FEFFF735FDFFF73D
S3150800209019FDFFF7E9FCFFF7C7FDFFF7E1FD00BFF4
S315080020A0FEE7000000000000000001020304060726
S315080020B0080900000000010203040000DC200008F3
S315080020C0000000201000000064200008EC20000832
S315080020D01000002000050000742000080024F40009
S311080020E0000000001000000001000000D5
S705080000ED05
