:020000040800F2
:1000000038270020C10100081B4C0008DD41000812
:10001000194C0008A5230008015800080000000042
:10002000000000000000000000000000275400084D
:10003000F12300080000000025540008295400089E
:10004000DB010008DB010008DB010008DB01000820
:10005000DB010008DB010008DB010008DB01000810
:10006000DB010008DB010008DB010008E5230008D4
:10007000DB010008DB010008DB010008DB010008F0
:10008000DB010008DB010008711A0008DB01000831
:10009000DB010008DB010008DB010008DB010008D0
:1000A000DB010008DB010008DB010008DB010008C0
:1000B000A9540008B554000800000000DB01000846
:1000C000DB0100080000000000000000DB01000868
:1000D00000000000DB010008D1570008000000000C
:1000E000DB010008DB010008DB01000800F002F87A
:1000F00000F057F80AA090E8000C82448344AAF16B
:100100000107DA4501D100F04CF8AFF2090EBAE868
:100110000F0013F0010F18BFFB1A43F0010318473B
:10012000746C0000946C0000103A24BF78C878C149
:10013000FAD8520724BF30C830C144BF04680C60ED
:10014000704700000023002400250026103A28BF35
:1001500078C1FBD8520728BF30C148BF0B60704739
:10016000662906F05980642900F01481732900F093
:10017000F685002070471FB59DE8030000F022FBC4
:1001800000F07AFE04000020002105F06DFE401C06
:1001900060600020002105F051FEE0601FBD10B539
:1001A00010BD00F0DAFF1146FFF7E5FF05F0FEFD98
:1001B00001F006F803B4FFF7F2FF03BC05F0A3FB60
:1001C0000948804709480047FEE7FEE7FEE7FEE7EB
:1001D000FEE7FEE7FEE7FEE7FEE7FEE70448054927
:1001E000054A064B70470000A5540008ED000008C2
:1001F0003807002038270020381700203817002043
:10020000704770B5064600F0BDFA056806F10B00B0
:1002100020F00704B4429CBF002070BD2B466A68E2
:10022000BAB11068A04210D304F1080188423CBF63
:100230005068586007D35168101941601168091B54
:10024000016058601460101D70BD13465268002A8A
:10025000E7D12146284600F0A1FA0028DED170BD82
:1002600070B50446051F00F08DFA0068002C14BF1D
:10027000446870BD002C18BFAC423CBF2046646887
:10028000F8D301680A18AA4218BF456003D12A684A
:1002900005461144016028684119A1421CBF6C60E9
:1002A00070BD6168696021680844286070BD000005
:1002B0000FB4044910B503AA029800F055FD10BC14
:1002C0005DF814FB100000200FB41CB5084B06AA03
:1002D0007B4469460090059800F017FD0446002015
:1002E000694600F025FD20461CBC5DF814FB0000AB
:1002F0005D0A000070B5044685690068C10601D535
:10030000302600E02026C00707D070BDD4E90121C7
:1003100030469047206A401C20626D1EF6D570BDA5
:1003200070B5044685690078C00707D170BDD4E96F
:10033000012120209047206A401C20626D1EF6D5C6
:1003400070BD70B50C460546012A05D02878800698
:1003500000D5EA69002302E0012305E05B1C93421B
:1003600002D2E05C0028F9D1A869E618C01AA86199
:10037000286A184428622846FFF7BCFF04E0D5E944
:10038000012114F8010B9047B442F8D32846FFF737
:10039000C7FF70BD2DE9F04106460024106875299D
:1003A000314616A510D0AFF30080002802DA404293
:1003B00013A507E031688A0701D512A502E04907B5
:1003C00004D511A5012401E0AFF3008000210A2229
:1003D00006F1240709E0B0FBF2FCB0FBF2F302FBEC
:1003E0001C00303078541846491C0028F3D12346AD
:1003F0002A463046BDE8F04100F01ABA000000007D
:100400002D0000002B000000200000002DE9F05F0F
:10041000894604464FF0000ADFF874B1FB44C0F887
:1004200020A02046E1688847002874D0252806D0FF
:10043000D4E901219047206A401C2062F1E70026A0
:100440005F462046E16888472028054607DB312DB6
:1004500005D2781910F8200C08B10643F1E7B0076F
:1004600001D526F00406C4F81CA00027C4F818A083
:100470002A2D09D0284605F03FFA38B304EB870847
:10048000303DC8F8185019E059F8041B204604EB19
:1004900087029161E1688847012F054618D1E0691C
:1004A000002820DA26F020061DE0D8F8180000EB1E
:1004B000800005EB40003038C8F818002046E1689D
:1004C0008847054605F018FA0028EED1012F0AD01A
:1004D0002E2D08D12046E16888477F1C0546022F53
:1004E00046F02006C4DBA069002803DA404246F04B
:1004F0000106A061F00701D026F010066C2D0BD08C
:10050000682D09D04C2D39D06A2D35D0742D35D0B9
:100510007A2D33D016E038E0E1682F462046884730
:10052000B842054609D16C2F26D04FF48060E168AF
:10053000064320468847054604E06C2F1AD04FF446
:10054000807006430DB3A5F14100192802D820356B
:1005500046F400664A462946204626604E46FFF786
:10056000FFFD80B101280BD0F61D26F0070000F139
:10057000080956E74020E4E78020D8E70020D6E7C6
:1005800006F104094DE7284652E7206ABDE8F09FCE
:10059000CE68000070B5064600F0F8F8046805461D
:1005A00030460A22002100F0F1FB2C6070BD401E95
:1005B000CAB210F8011F8A4202D00029F9D10020E6
:1005C000704710B5431E13F8014F002CFBD105E016
:1005D00011F8014B002C03F8014B03D0521EF7D247
:1005E0000021197010BD30B505460B462A4613F898
:1005F000014B12F8010B08B1A042F8D01CB1002841
:1006000002D06D1CF1E7284630BD10B5431C02E056
:1006100010F8011B71B18107FAD14FF0013202C805
:100620008C1A8C4314EAC211F9D0C01A0A0603D0FE
:10063000C01E10BDC01A10BD0A0401D0801E10BD1E
:100640000902FCD0401E10BD421E12F8013F002BD3
:10065000FBD111F8013B002B02F8013BF9D17047A7
:10066000032A40F2308010F0030C00F0158011F8DE
:10067000013BBCF1020F624498BF11F801CB00F8B6
:10068000013B38BF11F8013BA2F1040298BF00F80A
:1006900001CB38BF00F8013B11F0030300F0AE833B
:1006A000083AC0F0088051F8043B083A51F804CBEE
:1006B000A0E80810F5E7121D5CBF51F8043B40F8B4
:1006C000043BAFF30080D20724BF11F8013B11F8BF
:1006D00001CB48BF11F8012B24BF00F8013B00F803
:1006E00001CB48BF00F8012B70474FF000020429EE
:1006F000C0F0128010F0030C00F01B80CCF1040C51
:10070000BCF1020F18BF00F8012BA8BF20F8022B84
:10071000A1EB0C0100F00DB85FEAC17C24BF00F82A
:10072000012B00F8012B48BF00F8012B70474FF058
:10073000000200B5134694469646203922BFA0E831
:100740000C50A0E80C50B1F12001BFF4F7AF09073D
:1007500028BFA0E80C5048BF0CC05DF804EB89002E
:1007600028BF40F8042B08BF704748BF20F8022B71
:1007700011F0804F18BF00F8012B70477047704789
:100780007047704700487047DC06002000487047FB
:10079000D4060020704770477047704738B504464C
:1007A0000A4600206946AFF30080002808BF38BD24
:1007B00002460099204600F063FB012038BD01206D
:1007C00000F0C4BCF8B5AFF30080054600200C462D
:1007D000102000BF0646A819A0420DD9324669462E
:1007E0000020AFF30080070008BF00F0AFFC0098C6
:1007F000A04218BF0546C419FFF7C4FF05600746AD
:10080000F01D20F007004619284600F00AF8B4420F
:1008100008BFF8BDA21B31463868BDE8F84000F0BB
:100820002FBB00210160C0E9011070471020704704
:100830002DE9F0470D4699469246044600F12408FA
:100840000168880604D5E06921F01001216000E00C
:100850000120A84201DD471B00E00027A1697A19A9
:1008600002EB0900081AA0612078C00602D42046D5
:10087000FFF740FD002608E0D4E901211AF8060040
:100880009047206A401C761C20624E45F4DB20789D
:10089000C0060AD52046FFF72DFD06E0D4E9012168
:1008A00030209047206A401C2062381EA7F10107C3
:1008B000F4DC07E0D4E9012118F805009047206A2C
:1008C000401C2062281EA5F10105F3DC2046FFF73D
:1008D00027FD2078000602D50220BDE8F087012020
:1008E000FBE770472DE9FF4F0C461E464FF0FF37E0
:1008F0008BB0D2E90001DDF860800A908A46C1F32E
:100900000A5505B93D46002108464FF00000BAF1EE
:10091000000F00F4400005DA00EB80004FF44001C6
:1009200001EA50004FEA9059B9F1010F00DDB946D4
:100930000A9850EA4A000ED044F61050A5F2FF354E
:1009400045432F14B8F1000F1ED07542291E1EDD3D
:10095000C9F100021CE0B8F1010F4FF0000001D016
:10096000302103E0F24305E02154401CB042FBDBA0
:1009700030460022002121540B99C1F80880C1E9BA
:1009800000200FB0BDE8F08FBD1B6D1CDEE74A46AE
:1009900000DA694206A800F063FB06AB93E80700A3
:1009A00003AB83E8070050460A9900F098FC8DE8F5
:1009B0000700A0F500501F3800900398002D0ADDB5
:1009C00042F21F014A460844002303A903906846E7
:1009D00000F001FF09E0A0F500504A461F3800234F
:1009E00003A90390684600F00BFF8DE807000004A0
:1009F000000C03D04FF0FF30410800E01046B8F182
:100A0000000F03D00022009215461EE0751E05D48B
:100A100000F050FA303262556D1EF9D5B34601220E
:100A2000084302D000227F1C04E02078302801D146
:100A300000227F1E002A099784D01DE0112D07DABD
:100A400000F038FA303262556D1C50EA0102F5D1DF
:100A5000084302D00098C8B10EE00021681E05E0EE
:100A6000235C625C63542254401E491C8142F7DBC4
:100A7000AB46A81B401E0990002004F80B000B9801
:100A8000099AC0F80880C0E9002B7AE711264FF0D8
:100A9000000857E72DE9F04F88460446D21D22F0A2
:100AA000070191B0D1E90001CDE90A0104F000FF8E
:100AB00002460B98C00F01D02D2007E02068810767
:100AC00001D52B2002E0202101EAC000032A099071
:100AD00001D0072A05DB03464146204600F030FAE4
:100AE0000BE12078800601D5E06900E00620B8F12E
:100AF000650F814606D0B8F1660F18D0B8F1670FC0
:100B000070D131E00020B9F1110F009001DB112309
:100B100001E009F101030AAA01A90CA8FFF7E2FE0E
:100B2000DDE90C70002609F10105834647E001204C
:100B30004B4600904FF000470AAA01A90CA8FFF706
:100B4000D1FEDDE90DB00C995D46002610B909F122
:100B500001000D18B9EB050003D4C0F1FF3609F10F
:100B60000105A5EB09002BE0B9F1010F01DA4FF007
:100B700001090020B9F1110F0090484601DD112351
:100B800000E003460AAA01A90CA8FFF7ABFEDDE9C5
:100B90000C704D4600268346207800070AD4AB45EA
:100BA00000DA5D4601A8012D04DD411911F8011C90
:100BB000302907D04F4502DA17F1040F04DA01207B
:100BC00082460FE06D1EEEE7002F02DCED1B3E4477
:100BD00003E0781CA84200DD7D1CB81B00F1010A6F
:100BE0004FF000472078000703D4AA4501DB4FF0FF
:100BF000FF3A0021B7F1004F0DF143088DF8431083
:100C000024D002202B23002F01DA7F422D230A213A
:100C1000021EA0F1010000DC5FB197FBF1FC97FB25
:100C2000F1F201FB1C7C17460CF1300C08F801CDE9
:100C3000EEE7A8F1010003702188090501D54521DF
:100C400000E06521A0F1010800F8011C09980FA936
:100C5000A1EB0807FF1D00B10120411901EBEA706B
:100C6000A1693844081A401EA0612078C00602D449
:100C70002046FFF73FFB099828B1D4E901219047AE
:100C8000206A401C20622078C00622D52046FFF74B
:100C900031FB1EE0002E04DBB34502DD01A8805DC0
:100CA00000E03020D4E901219047206A401C2062F6
:100CB000761CAAF101005FEA000A0AD100F0DCF814
:100CC000C0680168405CD4E901219047206A401C5B
:100CD0002062281EA5F10105DCDC07E0D4E9012132
:100CE00018F8010B9047206A401C2062381EA7F1BB
:100CF0000107F3DC2046FFF713FB032011B041E6A8
:100D000001694A1C02610878704700B58FB0CDE9CF
:100D100001310021059105497944CDE903101146BF
:100D20006846FFF773FB0FB000BD0000E5FFFFFF53
:100D30000A6802F8010B0A60704710B5436913B1E5
:100D4000AFF3008001E0FFF7FCFA012010BD12783C
:100D500000F124010A7000224A700122EDE71168B7
:100D60004FF0FF32E9E70000074B70B50D467B44BA
:100D7000FFF7CBFF0446284600F0E4F910B14FF02E
:100D8000FF3070BD204670BD235000002DE9F047B4
:100D900091460F4680460446002614F8015B2DB1AB
:100DA00000F062F80068405DC007F6D12B2D02D03C
:100DB0002D2D18D0641E4A463946204600F000F911
:100DC00027B13968A14201D1C7F800804FF0020471
:100DD00071050BD54042002803DDFFF7D7FC046006
:100DE000A007BDE8F08746F48066E4E70028F8DA5B
:100DF000FFF7CCFC04606FF00040F2E710B5203A3A
:100E0000C0F00B80B1E81850203AA0E81850B1E8C3
:100E10001850A0E81850BFF4F5AF5FEA027C24BF79
:100E2000B1E81850A0E8185044BF18C918C0BDE870
:100E300010405FEA827C24BF51F8043B40F8043B39
:100E400008BF7047D20728BF31F8023B48BF11F8EE
:100E5000012B28BF20F8023B48BF00F8012B704748
:100E600000487047D406002010B500F005F8001DBA
:100E700010BD00BFF54F000000487047F406002089
:100E8000034640688C46002818BF88423CBF034692
:100E90004068F8D318681844884207D00CF1030062
:100EA00020F00700001D411A521A0146081D0A6071
:100EB000FFF7D6B930B5B0F10A024FEA900E71F1E2
:100EC00000034EEA817EB0EB0E0061EB91014FEA28
:100ED000101E4EEA017E10EB0E0041EB11114FEA9D
:100EE000102E4EEA016E10EB0E0041EB11214FEA7D
:100EF000104E4EEA014E10EB0E0041EB114140182E
:100F000041F100014FEAD00040EA41704FEAD101BF
:100F100010EB80054FEA810444EA907444EB01042D
:100F20006D1944EB0404521BA3414FF0000348BF6A
:100F30000A3200D530BD401C41F1000130BD000037
:100F40002DE9F0411F46044603260168072A01F4F3
:100F5000006004DB08B116A505E016A503E008B1A2
:100F600015A500E015A521F010002060A069C01EA5
:100F7000A0610FB1401EA0612046FFF7BBF94FB141
:100F8000D4E9012138469047206A401C2062C01CE9
:100F9000206206E0206AFAE7D4E9012115F8010B86
:100FA0009047761EF8D22046FFF7BAF9BDE8F081E7
:100FB0004E414E006E616E00494E4600696E6600FD
:100FC0002DE9F05F824615468B4600270AF10104A1
:100FD000B9460078302801D09DB113E014F8010B18
:100FE0000127782803D0582801D045B10AE00DB177
:100FF000102D07D1002714F8010B102502E0082559
:1010000000E00A250026B0460EE005FB080005FBBF
:1010100006F101271FFA80F801EB1046B6F5803F74
:1010200000D3B94614F8010B294600F0BBF800289C
:10103000EBDABBF1000F05D00FB1641E00E054469F
:10104000CBF80040B9F1000F06D0FFF79FFB02215B
:101050000160C81EBDE8F09F48EA0640FAE70000BC
:101060002DE9F047814616468AB0354878440DC8C8
:101070008DE80D0032487844801C03AC0DC884E82C
:101080000D0041F69B300844372190FBF1F290FBB4
:10109000F1F5A5F1800501FB12041B3C02D5644269
:1010A000012000E00020DFF898A080460027FA44E5
:1010B000AAF1BE0A0EE0E0070AD03246684607EB06
:1010C000470101230AEB810100F09AFB8DE807003C
:1010D00064107F1C002CEED1194F7F44AE3F19E005
:1010E000E80715D007EB04100DF1180A90E80E0080
:1010F0008AE80E00C068F04201D198190890324683
:10110000012306A903A800F07BFB03AB83E80700DB
:101110006D10641C002DE3D14FF001033246694687
:10112000B8F1000F03A802D000F055FB01E000F079
:1011300067FBC9E90001C9F808200AB0BDE8F087DB
:101140000C5D0000007B00F08000704710B500F0DF
:1011500045F8BDE8104000F03CB87546FFF780FE4A
:10116000AE4605006946534620F00700854618B094
:1011700020B5FFF733F8BDE820404FF000064FF0F0
:1011800000074FF000084FF0000B21F00701AC46BC
:10119000ACE8C009ACE8C009ACE8C009ACE8C009DB
:1011A0008D4670473A2800D2303820F02002412A7C
:1011B00001D3A2F13700884201D34FF0FF307047CE
:1011C00010B50446AFF300802046BDE81040FEF79E
:1011D000F1BF002801D004F096BB704710B501287C
:1011E00005D0002103A000F061F8012010BD09A185
:1011F000F8E7000053494752544D454D3A204F758A
:1012000074206F662068656170206D656D6F7279FE
:10121000000000003A2048656170206D656D6F72B6
:101220007920636F72727570746564004FF0013CD1
:1012300050F8042B51F8043B9A4221D1A2EB0C0345
:10124000934313EACC1317D150F8042B51F8043B05
:101250009A4215D1A2EB0C03934313EACC130BD1A2
:1012600050F8042B51F8043B9A4209D1A2EB0C032D
:10127000934313EACC13DBD04FF00000704700BF5C
:10128000D01A01BAB1FA81F101F0180122FA01F085
:10129000CB40C1F12001DBB2C0B2C01A2CFA01F37D
:1012A000D11A914311EAC311E6D1704770B50546D2
:1012B0000C460A2000E06D1C04F026FB35B12878AE
:1012C0000028F8D102E0641C04F01EFB14B1207861
:1012D0000028F8D1BDE870400A2004F015BB5FEA91
:1012E000400C08BF91F0000F4FEA8C234FEAC12257
:1012F00043EA51514FEA1C5018BF00F5F0404FEA45
:10130000300018BF41F000415FEA6C5C00F02980BA
:10131000BCF1FF3F08BF40F080407047130C06BF90
:1013200012044FF0100C4FF0000C130E04BF120209
:101330000CF1080C130F04BF12010CF1040C930FF5
:1013400004BF92000CF1020CD30F04BF52000CF149
:10135000010C11464FF00002A0F11F00A0EB0C00A1
:10136000704711F0004F08BF704731F000413FF463
:10137000D5AF0B0C06BF09044FF0100C4FF0000C5A
:101380000B0E04BF09020CF1080C0B0F04BF09017E
:101390000CF1040C8B0F04BF89000CF1020CCB0F75
:1013A00004BF49000CF1010CCCF12003A0EB0C00B0
:1013B00022FA03F302FA0CF241EA030100F1010000
:1013C000704720F07F4C80EA030023F07F47ACEBAE
:1013D000070303F57C5300F0004003F1FF032DE900
:1013E00080494FEA154B09B44FEA144325EA0B4EE6
:1013F00024EA03480FF2042606EB132749083E7837
:101400005FEA320203FB0667C7F5000707FB06F633
:101410004FEA54374FEAD64606F1020607FB066C40
:10142000CCF1005C4FEA1C472CEA074C07FB06F4A2
:101430000CFB06F504EB15464FEA961634BF002068
:101440004FF000404FEAD13706FB07FC4FEA1C4C37
:101450000CFB0BF7D21B03FB0CF761EB07010CFB3A
:101460000EF7B0EB074072EB17420CFB08F734BFE6
:10147000A2EB0742B2EB074261EB17414FEA0C4483
:101480004FEA910706FB07FC4FEA1C4C0CFB0BF7DD
:10149000B0EBC74072EB573203FB0CF734BFA2EB43
:1014A000C742B2EBC74261EB57310CFB0EF7B0EB12
:1014B000C70072EB57720CFB08F734BFA2EBC702F0
:1014C000B2EBC70261EB5771039F4FEA816141EABA
:1014D000921104EBCC044FEAD1374FEA826206FB4B
:1014E00007FC42EA90124FEA80604FEA1C4C0CFB6A
:1014F0000BF7D21B03FB0CF761EB07010CFB0EF79C
:10150000B0EB074072EB17420CFB08F734BFA2EBBD
:101510000742B2EB074261EB17414FEA8C554FEAA5
:10152000910704EB9C2406FB07FC4FEA1C4C0CFBC8
:101530000BF7B0EBC74072EB573203FB0CF734BF2D
:10154000A2EBC742B2EBC74261EB57310CFB0EF77F
:10155000B0EBC70072EB57720CFB08F734BFA2EB7D
:10156000C702B2EBC70261EB577115EB4C254FEA8E
:10157000816141EA92114FEA82624FEAD13742EA31
:10158000901206FB07FC44F100044FEA80604FEA2A
:101590001C4C0CFB0BF7D21B03FB0CF761EB070198
:1015A0000CFB0EF7B0EB074072EB17420CFB08F791
:1015B00034BFA2EB0742B2EB074261EB174115EBD8
:1015C0001C154FEA813141EA92414FEA823242EAE8
:1015D00090424FEA80304FEA0C7644F1000448EA2A
:1015E00003434EEA0B484FF0000EB2EB080C71EBD0
:1015F000030724BF624639464EEB0E0E4FF0000B38
:101600000018524149414BEB0B0BB2EB080C71EB4C
:1016100003077BF1000B24BF624639464EEB0E0EEA
:101620004FF0000B0018524149414BEB0B0BB2EB52
:10163000080C71EB03077BF1000B24BF62463946AF
:101640004EEB0E0E51EA020718BF46F0010616EBEC
:101650000E7655F1000254F1000103D5BDE8890171
:10166000BDE80088BDE88901BDE80048B6195241CF
:1016700041EB0101A3F10103704780807F7E7D7CF7
:101680007B7A7978777676757473727171706F6E14
:101690006E6D6C6C6B6A6A696868676666656464BF
:1016A000636362616160605F5F5E5E5D5D5C5C5B49
:1016B0005B5A5A59595858575756565555555454B8
:1016C000535352525251515050504F4F4F4E4E4D16
:1016D0004D4D4C4C4C4B4B4B4A4A4A494949484862
:1016E00048474747474646464545454444444443A2
:1016F00043434342424242414141002B9C4630D445
:1017000077002BD01CB54FEA370703B44FF0100019
:101710004FF01001BAF1000F06D0BCF1000FDCBF92
:1017200040F0080040F008014FF000000FBCBDE899
:1017300010400BF1010BBBF1010F08BF5FEA170767
:1017400022BF12F1010211F101014FF0004143F1FA
:10175000000300F0004043EA00007047F9D3570847
:10176000D0E746EA064613F1400F4FEA16461FDD62
:1017700013F1200FDFBF16430A46002120335B42DE
:10178000BED0C3F1200746EA064602FA07F74FEA41
:10179000164646EA0706C3F1200722FA03F201FAC9
:1017A00007F721FA03F14FF0000342EA0702A7E727
:1017B00046EA020646EA06464FEA164646EA0106A9
:1017C000BCBF46EA0646360C4FF000034FF000025D
:1017D0004FF0000194E72DE9804C9A46934670B48F
:1017E00091E8380007C831EA400C48BF34EA430C9E
:1017F00003D5FFF7E6FDFFF780FFF0BCBDE8008CE6
:101800002DE9804C9A46934670B491E8380007C899
:1018100010F0804F08BF13F0804F03D100F005F89F
:10182000FFF76BFFF0BCBDE8008C20F07F4780EA3B
:10183000030023F07F4C07EB0C03A3F57C5300F06F
:101840000040A3F1FE0392F0000F00F0B38095F08A
:10185000000F00F077802DE901494FEA11404FEA6F
:10186000144621EA004800FB06FC24EA064708FB70
:1018700006F607FB08F800FB07F718EB06484CEBE9
:10188000164C4FEA124B18EB07484FEA15464CEB43
:10189000174022EA0B4E0BFB06FC25EA06470EFB1F
:1018A00006F607FB0EFE0BFB07F71EEB064E4CEB96
:1018B000164C4FF000061EEB074E4CEB174B18EB87
:1018C0000B0840F1000018EB0E0B58EB000840F13C
:1018D00000008F1A4FF000013CBFC943661B14BFC4
:1018E000B5EB040C00213CBFC943F61B4FEA17447B
:1018F0004EEA8E0E27EA04454FEA1C4704FB0762B6
:101900002CEA074C05FB07F70CFB05F604FB0CFC67
:1019100016EB074642EB174216EB0C4642EB1C4215
:101920001BEB060658EB0202414146EA9E0601D532
:10193000BDE80189B619524141EB0101A3F1010350
:10194000BDE801894FEA14454FEA114724EA0546EC
:1019500021EA074C05FB07F406FB07F70CFB06F131
:1019600005FB0CFC11EB074144EB17444FEA12470F
:1019700011EB0C4144EB1C4422EA074C05FB07F237
:1019800006FB07F70CFB06F605FB0CFC16EB0746FF
:1019900042EB174216EB0C4642EB1C456A1854F119
:1019A000000148BF7047B619524141EB0101A3F154
:1019B0000103704795F0000F37D04FEA11424FEA0C
:1019C000144721EA024624EA074C02FB07F106FB12
:1019D00007F70CFB06F402FB0CFC14EB074441EB8D
:1019E00017414FEA154714EB0C4441EB1C4125EA23
:1019F000074C02FB07F506FB07F70CFB06F602FB9C
:101A00000CFC16EB074645EB174516EB0C4645EB71
:101A10001C42121951F1000148BF7047B6195241DA
:101A200041EB0101A3F1010370474FEA14454FEA6E
:101A3000114724EA054621EA074C05FB07F106FB9E
:101A400007F70CFB06F24FF0000605FB0CFC12EB4F
:101A5000074241EB174112EB0C4251EB1C4148BFCE
:101A60007047921841EB0101A3F101037047000098
:101A7000014800F0F3BE00006000002070B504468D
:101A800000688168C943C90717D1816821F0010145
:101A9000816001F087FB05460AE000BF01F082FB90
:101AA000401B022804D920688068C043C00706D0C4
:101AB00020688068C043C007F0D0002070BDA06AD5
:101AC00040F01000A062E06A40F00100E0620120F6
:101AD00070BD00002DE9F041184801F0AFF84FF655
:101AE000FF71164801F00CF8144800F0B4FE144CD5
:101AF0002080124801F002F9208804F005FA114E06
:101B00004FF066352A46334604F012FA6FF00B07A1
:101B10003A4604F0B5FB02460B460BA0FEF7C8FBA5
:101B2000208804F0F1F92A46334604F001FA3A46D7
:101B300004F0A6FBBDE8F04104F0ACB96000002061
:101B40001800002066660A404D51323D25660D0A98
:101B500000000000F8B50026044600960068816881
:101B6000C943C9072DD0816841F001018160164841
:101B700016490068B0FBF1F000E0401E009000281C
:101B8000FBD101F00FFB054616E000BF01F00AFB98
:101B9000401B022810D920688068C043C0070BD0C2
:101BA000A06A40F01000A062E06A40F00100E0622C
:101BB00084F824600120F8BD20688068C043C00715
:101BC000E4D10020F8BD00000C00002040420F00CE
:101BD00001484088704700005000002017484FF629
:101BE000FF7200214388934201D1418001E05B1CD8
:101BF000438003785B1CDBB20370632B15D9017043
:101C00008388934201D1818001E05B1C838043780B
:101C10005B1CDBB243703B2B07D94170C3889342F6
:101C200001D1C18001E05B1CC3800289521C92B2C9
:101C300002810A2A00D9018170470000500000206B
:101C40000A4A5288824205D24FF6FF73181A10448E
:101C5000401C00E0101A0A22B1FBF2F180B2884267
:101C600001D3012070470020704700005000002081
:101C700010B5074C4FF47A712088FFF7E1FF012877
:101C800005D1FFF727FF6060FFF7A2FF208010BD9E
:101C90002C0000200548064A01680648914201DDF3
:101CA000012100E000210170704700003000002099
:101CB0000AD7A33E4D00002010B50B4C4FF47A71AB
:101CC000208880B2FFF7BCFF01280BD1211D601DC9
:101CD00003F09CFF2279617904A0FEF7E9FAFFF78F
:101CE00077FF206010BD00002400002044485431DC
:101CF000312E54656D703A25642C44485431312E90
:101D000048756D69646974793A25640D0A000000AC
:101D100010B5002219491A4803F0D5FE18480022D0
:101D20001849283003F0CFFE174A0321144803F066
:101D3000ECFD164A0421124803F0E7FD144A06217F
:101D40000F4803F0E2FD0E48124A0321283003F049
:101D5000DCFD0B48104A0421283003F0D6FD08486A
:101D60000E4A0621283003F0D0FD054803F0C2FEDC
:101D70000348BDE81040283003F0BCBE255E0008D3
:101D800004060020315E0008FD21000885210008BE
:101D9000C92100083D230008E122000805230008AE
:101DA00010B5084C4FF47A712088FFF749FF0128DD
:101DB00006D14103044801F0E8F9FFF709FF20804C
:101DC00010BD0000220000200010014010B5124C90
:101DD00041F28831A08880B2FFF732FF012809D193
:101DE0000EA0FEF765FA03F0B3FA00F06BFBFFF705
:101DF000EFFE606020890A2180B2FFF721FF0128F1
:101E000009D1002000F06CFB206008B103F0B6F9A6
:101E1000FFF7DEFEA06010BD400000204F6E654E53
:101E200065745F53656E64446174610D0A0000005F
:101E30002DE9F043804C85B00126207870B37F4FA8
:101E40007F4D4FF002084FF42F7104F10309012870
:101E50003DD002287ED1208980B2FFF7F1FE012813
:101E600078D178A20021202002F078FF77A21021FB
:101E7000202002F073FF202176A2084602F06EFFB8
:101E800076A23021202002F069FFA01C00780028F3
:101E90007ED001287DD002287CD1C4E020894FF477
:101EA0007A7180B2FFF7CCFE012853D100216DA2D8
:101EB000084602F053FF607838B16FA2202108462F
:101EC00002F04CFF00F0A4FA6EE06FA2F6E7208962
:101ED00080B2FFF7B5FE01286BD100215DA2084654
:101EE00002F03CFF6A796CA16846FEF7EDF96A469C
:101EF0000021302002F032FF54A20021462002F0DF
:101F00002DFF3878012857D064A20021722002F0FA
:101F100025FF52A21021002002F020FF2A795EA1A5
:101F20006846FEF7D1F96A461021302002F016FF0C
:101F30005BA21021462002F011FF5B4800780128C7
:101F40003CD056A21021722002F008FF202157A297
:101F5000002000E02DE002F001FF5648006804F088
:101F6000E5F802460B4654A16846FEF7ADF96A460D
:101F70002021302002F0F2FE51A23021002002F098
:101F8000EDFE5148007801281AD050A2302102E01D
:101F90001BE01EE023E0084602F0E0FE00F038FA05
:101FA00099F8000001280DD084F80060FFF710FEBA
:101FB000A06005B0BDE8F08345A2A6E744A2C1E752
:101FC00044A2E3E784F80080F0E710232C221946AE
:101FD00002E010232C222021202002F041F9387841
:101FE000012824D02DA210214C2002F0B7FEEA795E
:101FF00039A16846FEF768F96A4620214C2002F0B4
:10200000ADFEAA7934A16846FEF75EF96A46302132
:102010004C2002F0A3FE99F80000012809D0267098
:1020200000F0F6F9C2E710232C223021D4E728A2D1
:10203000D9E784F80080F3E7340000204C0000204A
:1020400024000020C9E8D6C33A000000D7D4B6AFB8
:102050003A000000CEC2B6C83A000000CAAAB6C80C
:102060003A000000D6C7C4DCCADFB2CBB4F3C5EF78
:10207000CFB5CDB300000000D4C6C6BDCCA8CEB449
:10208000C1ACBDD300000000D4C6C6BDCCA8D2D11F
:10209000C1ACBDD30000000025640000B9D8000029
:1020A000BDBDCBAE3A0000004E0000204D51323A8B
:1020B0000000000030000020252E326600000000E5
:1020C000BEAFB8E63A0000004D000020CEDE0000B2
:1020D000BFAA0000D3D00000253032640000000009
:1020E0000B490C480A798B7900789A4201D801286B
:1020F00005D04A79C9798A4203D3012806D1012043
:1021000002E0012802D1002002F0D6B8704700009A
:10211000240000204C000020044823218171192153
:10212000C17103490020087070470000240000209E
:102130004E00002010B5482003F0FCFC0A4801F0D6
:10214000D9FC0A4801F0D6FC03F052FD00F052F928
:10215000002107A2084602F001FE00F059F9BDE88F
:10216000104000F0DDB900001C010020D400002068
:10217000D6C7C4DCCADFB2CBB4F3C5EFCFB5CDB39D
:102180000000000007480078012808D106480178BF
:10219000491CC9B20170032901D30021017003A0B9
:1021A000FEF786B8370000203600002042544E313A
:1021B0005F444F55424C455F434C49434B5F486138
:1021C0006E646C65720D0A000348017809B901213B
:1021D000017002A0FEF76CB83700002042544E3167
:1021E0005F4C4F4E475F50524553535F484F4C44EE
:1021F0005F48616E646C65720D0A000010B522A024
:10220000FEF756F827480022007801280AD0002857
:1022100018D125480178491CC9B20170022924D37C
:1022200002702BE02148017869B12148012913D0BF
:10223000022907D18179491EC9B28171012901D8CA
:102240005A21817110BD1B480178491CC9B2017027
:102250000229F7D3027010BDC179491EC9B2C171FC
:102260000129F8D82321C17110BD39B1012002F034
:1022700023F811A0BDE81040FEF71AB8002002F0C4
:102280001BF812A0F6E7000042544E315F53494E4E
:10229000474C455F434C49434B5F48616E646C65F6
:1022A000720D0A00370000204E000020360000208A
:1022B000240000204C0000204C6564325F5365749C
:1022C000284C45445F4F4E293B0D0A004C65643253
:1022D0005F536574284C45445F4F4646290D0A00FC
:1022E00001A0FDF7E5BF000042544E325F444F5558
:1022F000424C455F434C49434B5F48616E646C659B
:10230000720D0A0004480178012901D100210170F1
:1023100002A0FDF7CDBF00003700002042544E322E
:102320005F4C4F4E475F50524553535F486F6C644C
:102330005F48616E646C65720D0A000010B50FA0F5
:10234000FDF7B6FF1448007801280ED1134801218B
:1023500002781348012A09D0022A06D18279521C38
:10236000D2B282715A2A00D3817110BDC279521C37
:10237000D2B2C271242AF8D3C17110BD42544E3278
:102380005F53494E474C455F434C49434B5F48615F
:102390006E646C65720D0A00370000203600002064
:1023A00024000020FEE700001FB52020009001203F
:1023B000029000200190032003906946014800F03C
:1023C000FFFD1FBD000801401FB520200090012027
:1023D0000190032003906946014800F0F1FD1FBD04
:1023E00000080140014800F013BD000090000020EB
:1023F0007047000010B502F034FC4FF480610348D0
:10240000FEF773F9BDE8104000F002B802020020A8
:1024100010B5054802F002FCBDE810404FF48061A1
:102420000148FEF762B90000020200202DE9F74FD3
:102430004FF000081378547821494046C0EBC002A1
:1024400002EB82028D5C9D4203D10A445278A24283
:1024500004D0401C80B21E28F0D30020C0B2C0EBD4
:10246000C00000EB8000002500EB010B0026009867
:10247000012700240BEB080900EB050A99F803007B
:10248000384208D00198204400EBC600C1B20AF0DF
:10249000FF0002F0BDFC7806641C070EE4B2082CB5
:1024A000ECD3761CF6B208F1010000F0FF08022E12
:1024B000DDD36D1CEDB2102DD8D3BDE8FE8F00002A
:1024C0002463000810B580210348FEF70EF9034984
:1024D0000020088010BD0000540600205A00002093
:1024E00010B5044600F024F958B90AA10B48FEF7CC
:1024F0007AF830B13A21FEF75AF8002800D0401C93
:1025000010BD052003F020FB2046641EA4B2E9D2D2
:1025100010BD00004950442C00000000540600206B
:1025200010B5FFF7CFFF24A0FDF7C2FE26A127A01C
:1025300000F0B2F84FF47A7003F006FBFFF7C2FF29
:1025400026A0FDF7B5FE02E0C82003F0FDFA1EA1AB
:1025500024A000F0A1F80028F6D124A0FDF7A8FEE1
:1025600002E0C82003F0F0FA17A123A000F094F8CD
:102570000028F6D124A0FDF79BFE4FF4FA7402E088
:10258000204603F0E1FA23A124A000F085F80028FA
:10259000F6D12AA0FDF78CFE02E0204603F0D4FA23
:1025A0002AA12CA000F078F80028F6D1BDE8104050
:1025B00033A0FDF77DBE0000302E2041542B524544
:1025C00053544F52450D0A004F4B00002041542BED
:1025D000524553544F52450D0A000000312E204100
:1025E000540D0A0041540D0A00000000322E204311
:1025F000574D4F44450D0A0041542B43574D4F440E
:10260000453D310D0A000000332E2043574A41500A
:102610000D0A0000474F54204950000041542B43FD
:10262000574A41503D2274657374222C227465739D
:1026300074313233343536220D0A0000342E2043F3
:10264000495053544152540D0A000000434F4E4E1E
:102650004543540041542B43495053544152543D37
:1026600022544350222C223138332E3233302E3430
:10267000302E3339222C363030320D0A0000000063
:10268000352E204553503832363620496E69742035
:102690004F4B0D0A0000000070B50E460546C824D9
:1026A000FDF7B3FF82B2FF2329460C4801F03CFD41
:1026B0000FE000BF00F03CF840B931460848FDF794
:1026C00092FF18B1FFF7FEFE002070BD0A2003F054
:1026D0003BFA641EE4B2EDD2012070BDA8010020D7
:1026E0005406002030B589B00C460546FFF7EAFED7
:1026F000224609A16846FDF7E7FD0BA16846FFF7F2
:10270000CBFF002805D1FF2322462946074801F0C8
:102710000BFD09B030BD000041542B4349505345D7
:102720004E443D25640D0A003E000000A801002033
:102730000648018831B14288914205D100210180CB
:1027400008467047012070474180FBE75A0000208F
:1027500072B6FEE770470000F8B50024009490F8C8
:1027600024202546012A12D0012280F824204A681C
:102770001F23072A0DD20668776B521E02EB8202D6
:1027800093409F430B6893401F43776319E00220F7
:10279000F8BD06680D2A0AD2376BD21F02EB8202FF
:1027A00093409F430B6893401F43376309E0F76AE8
:1027B0000D3A02EB820293409F430B6893401F4304
:1027C000F7620A68072306680A2A0AD3F7680A3AF2
:1027D00002EB420293409F438B6893401F43F76094
:1027E00008E0376902EB420293409F438B689340B5
:1027F0001F4337610A68102A01D0112A20D1124BD9
:1028000002689A4217D193681B0219D4936843F463
:10281000000393600968102912D10C490C4A096819
:10282000B1FBF2F101EB8101490000E0491E00918A
:102830000029FBD104E0816A41F02001816201247A
:1028400080F824502046F8BD002401400C000020F0
:1028500040420F0070470068C06C704710B50446D6
:1028600000684168890626D50168890723D5A16AD1
:10287000C90603D4A16A41F40071A1628168C1F361
:102880004241072910D1217B71B9416821F0200113
:102890004160A06A20F48070A062A06AC00403D4E2
:1028A000A06A40F00100A0622046FFF7D3FF216834
:1028B0006FF0120008602068416809062ED5016893
:1028C00049072BD5A16AC90603D4A16A41F4005176
:1028D000A1628168C1F30231072909D04168490525
:1028E00015D48168C1F34241072910D1217B71B908
:1028F000416821F080014160A06A20F48050A0620C
:10290000A06AC00503D4A06A40F00100A06220467E
:10291000FFF720FF21686FF00C0008602068416815
:1029200049060DD50068C0070AD0A06A40F480307F
:10293000A062204600F094F821686FF00100086062
:1029400010BD00002DE9F0414FF0000704003D46A6
:102950007ED0A06A002628B9E66284F8246020466A
:1029600000F080F82046FFF789F8A16AC90600D474
:1029700020B1A06A40F01000A06269E0A16A21F4D1
:10298000885141F00201A1626268E169237B0A4338
:1029900047EA43010A43A1684FF48077B94209D05E
:1029A000012907D05FF0000194F814C0BCF1010FB9
:1029B00002D00AE03946F7E7F3B1A36A43F02003F7
:1029C000A362E36A43F00103E3622368D3F804C01F
:1029D0002CF4694C4CEA010CC3F804C021688B68E4
:1029E000DFF870C003EA0C0313438B60A168B9429F
:1029F0000BD0012909D00CE0DFF85CC0A3690CEB17
:102A000043330B4343F40061DFE7218A0D05A5F54D
:102A100080152168CB6A23F470032B43CB622168B5
:102A200089680E4B1940914208D1E662A16A21F0F3
:102A3000020141F00101A162BDE8F081A06A20F02D
:102A4000020040F01000A062E06A40F00100E06285
:102A50000120F1E7FDF7E1FF00E0FFFFFE0E1FFFA1
:102A600070470000F0B585B0002506460095019539
:102A70000295039500681D49884235D11C49886933
:102A800040F400708861886900F4007004908869DF
:102A900040F0040088618869802700F004000490F9
:102AA0000320CDE900706946124800F089FA134C02
:102AB0001148C4E900058015A560C4E903708000D1
:102AC00060612020C4E90605204600F04BFA08B1F9
:102AD000FFF73EFE3462002201211220666200F000
:102AE000D1FB122000F0C0FB05B0F0BD0024014076
:102AF0000010024000080140080002409000002041
:102B00002DE9F84300270D460446009700F04AFBE4
:102B1000804620688168C90508D5A06A40F0200079
:102B2000A06284F824700120BDE8F8834168C905DB
:102B300003D4C06A10F4700F2AD0022000F0D4FB36
:102B40003B490968B1FBF0F62068036939490B423B
:102B50004FEA61014FEAA1121FD1C3684FEA611C1D
:102B600013EA0C0F19D103690B4225D1C06810423A
:102B700022D1142023E0681C0AD02DB100F012FBF2
:102B8000A0EB0800A84203D920680068800725D57B
:102B9000206800688007EED52DE003690B4202D162
:102BA000C168114206D0026923490A4206D1C068B1
:102BB000084203D1542002E0292000E0FC204643D3
:102BC000009816E0681C11D02DB100F0EBFAA0EBD4
:102BD0000800A8420AD90098B04207D2A06A40F083
:102BE0000400A06284F8247003209DE70098401C34
:102BF0000090B042E6D321686FF012000860A06A2E
:102C000040F40070A06220688068C0F3424007284A
:102C10000CD1207B50B9A06A20F48070A062A06A19
:102C2000C00403D4A06A40F00100A06200207BE74A
:102C30000C000020244992244992240070B50446D7
:102C400090F8240001280DD0012084F824002046AB
:102C5000FEF780FF02004FF0000005D084F824004A
:102C6000104670BD022070BDA16A40F20123994355
:102C700041F48071A1621F4D23681F49AB4218D1F6
:102C80000E6816F4702F14D0A66A46F48016A66259
:102C90000E68760505D5A66A26F4005646F48056D9
:102CA000A662A66AF6040AD5E66A26F00606E66279
:102CB00006E0A66A26F48016A6625E68E9E7E0628E
:102CC00084F824006FF00200186020688368C3F362
:102CD0004243072B05D1A84208D1096811F4702F8F
:102CE00004D0816841F480118160B9E7816841F4C2
:102CF000A001F9E7002801400424014010B5044672
:102D000090F82400012807D0012084F824002046F0
:102D1000FEF7B4FE10B107E0022010BDA16A21F455
:102D2000885141F00101A162002184F8241010BDF6
:102D300010B590F821100022022905D004218163EA
:102D400080F82020012010BD01680B6823F00E03DD
:102D50000B6001680B6823F001030B6090F84030B2
:102D6000C46B012101FA03F3636080F8211080F83D
:102D70002020104610BD000010B590F8211000244E
:102D8000022903D00421816301243DE001680A681F
:102D900022F00E020A6001680A6822F001020A604D
:102DA0001A4A0168914201D1012121E0174A1432E7
:102DB000914201D110211BE0144A2832914201D1E5
:102DC000891515E0114A3C32914201D189140FE076
:102DD0000E4A5032914202D14FF4803108E00B4A42
:102DE0006432914202D14FF4801101E04FF08071C2
:102DF000064A083A5160012180F82110002180F82C
:102E00002010416B01B18847204610BD08000240E8
:102E10002DE9F05FC16B0C6801680B68D0F840C009
:102E2000042202FA0CF2494DDFF824A1494E4A4F20
:102E3000DFF828B1DFF828E122422CD05A072AD542
:102E40000A68920603D40A6822F004020A60016844
:102E5000A94201D1042219E0514501D1402215E0D7
:102E6000B14202D14FF4806210E0B94202D14FF476
:102E700080420BE0594502D14FF4802206E07145B3
:102E800002D14FF4800201E04FF080622F490839EF
:102E90004A60C16A3BE04FF0020808FA0CF818EAF1
:102EA000040F4FF000094FF0010235D05FEA83783C
:102EB00032D50B689B0605D40B6823F00A030B6020
:102EC00080F821200168A94201D1022219E0514570
:102ED00001D1202215E0B14202D14FF4007210E07E
:102EE000B94202D14FF400520BE0594502D14FF4E0
:102EF000003206E0714502D14FF4001201E04FF0BC
:102F00000072124908394A6080F82090816A0029CD
:102F10001AD0BDE8F05F0847082505FA0CF52542F0
:102F200012D01B0710D50B6823F00E030B6090F82E
:102F30004010C36B02FA01F15960826380F82120CE
:102F400080F82090016BE2E7BDE8F09F08000240A6
:102F50001C00024030000240440002405800024081
:102F60006C00024030B528B308C813491422194434
:102F7000B1FBF2F18900C1631049816302214177FD
:102F80001A6843F6F0718A43D0E900142143D0E96E
:102F900002452C4321430469214344692143846948
:102FA00021431143196000214163012242770177D7
:102FB000084630BD012030BDF8FFFDBF00000240D3
:102FC0002DE9F84FDFF89C91002409F1040A0AF179
:102FD000040B23460F270BF1040EBBE00125A5408F
:102FE0002A40AA4276D1DFF880C14E68A6EB0C08D1
:102FF00066452BD00DDC032E34D005DC36B3012E14
:1030000019D0022E2FD11BE0112E16D0122E2AD14C
:1030100019E0B8F5881F19D006DCB8F5803F15D047
:10302000B8F5801F1FD111E0B8F5001F0ED0B8F51C
:10303000041F18D10AE0CB6815E0CB681B1D12E015
:10304000CB6808330FE0CB680C330CE08B682BB1F6
:10305000012B4FF0080303D0456104E0042302E094
:10306000056100E00023FF2A01D8064601E000F1D7
:1030700004064FEA840501D9A5F12005D6F80080A1
:1030800007FA05FC28EA0C0803FA05F548EA0508E2
:10309000C6F800804D68ED005BD5344DAE6946F052
:1030A0000106AE61AD6924F0030605F00105009547
:1030B0002F4D06EB050CDCF80850A607360F07FA73
:1030C00006F825EA0805DFF8AC80404503D14FF04B
:1030D000000810E03DE0DFF8A080404502D14FF04D
:1030E000010808E0DFF89480404502D14FF0020863
:1030F00001E04FF0030808FA06F848EA0508CCF8A2
:1031000008804D68D9F80060ED034D4601D516439F
:1031100000E096432E604D68DAF80060AD03554636
:1031200001D5164300E096432E604D68DBF8006041
:10313000ED025D4601D5164300E096432E604D68D2
:10314000DEF80060AD02754601D5164300E09643F7
:103150002E60641C0A6832FA04F57FF43FAFBDE8C4
:10316000F88F000000040140000011100010024020
:103170000000014000080140000C01400010014027
:103180008068084000D001207047C26821EA02032D
:103190000A4043EA0241016170470AB10161704788
:1031A0000904FBE701488068704700000000002028
:1031B0000248816802781144816070470000002055
:1031C000074810B5016841F010010160032000F0CC
:1031D00079F8032000F006F800F024F8002010BD74
:1031E0000020024070B50D4D04464FF47A712878E6
:1031F000B1FBF0F00A490968B1FBF0F000F0D6FB32
:1032000048B9102C07D200222146501E00F03AF88F
:1032100000206C6070BD012070BD00000000002027
:103220000C0000200E4808B5816941F00101816160
:10323000816901F001010091C16941F08051C161D2
:10324000C06900F080500090052000F03BF8054870
:10325000416821F0E06141F00071416008BD00006B
:103260000010024000000140002809DB00F01F02AE
:10327000012191404009800000F1E020C0F80011D8
:1032800070470000F0B40E4B1B680C46C3F30223DA
:10329000C3F10705042D00D90425191D072901D202
:1032A000002300E0DB1E012606FA05F1491E21403D
:1032B00099409E40761E16403143F0BC02F00CBB94
:1032C0000CED00E0064900F0070208684FF6FF0326
:1032D000184040EA0220034A10430860704700008B
:1032E0000CED00E00000FA0510B529A401461DCC44
:1032F00086B08DE81D002AA02A4C006804900020AA
:10330000012923D002293AD010291DD161682268F1
:10331000D20119D5C1F38342C9031DF8020009D5B2
:10332000616804AAC1F34041515C1F4AB2FBF1F14C
:10333000484301E01D4948436168490204D4400004
:103340005FF00301B0FBF1F006B010BD226AC2F3DA
:103350000121012903D1920701D5C803F4E702290D
:1033600005D1626A920702D549F64040ECE703298D
:10337000EAD121688903E7D54FF22440E4E700F061
:1033800033F96168C1F38131491C4900DAE7000073
:1033900002030405060708090A0B0C0D0E0F101096
:1033A000010200000010024000127A0000093D00F6
:1033B0002DE9F84305460078354CC00754D0E06944
:1033C0000026C00008D4E06940F08050E061E06968
:1033D000012600F0805000902E480168C90512D4E3
:1033E0000168804641F480710160FFF7DBFE07460B
:1033F00005E000BFFFF7D6FEC01B642823D8D8F82D
:103400000000C005F6D5206A10F4407021D0A988CC
:1034100001F4407181421CD0206A1F49012220F42E
:1034200040700A6000220A602062C00711D0FFF7D6
:10343000B9FE074641F2883808E000BFFFF7B2FE48
:10344000C11B414502D90320BDE8F883206A8007EB
:10345000F4D5206A696820F44070084320621EB1E8
:10346000E06920F08050E0612878800705D5606829
:10347000A96820F44040084360602878C00605D55C
:103480006068E96820F48000084360600020DBE7A2
:103490000010024000700040400442422DE9F04715
:1034A0000F46050061D0434E306800F00700B84277
:1034B00009D2306820F0070038433060306800F0EF
:1034C0000700B84251D128683B4C810712D540070C
:1034D00003D5606840F4E06060602878000703D599
:1034E000606840F4605060606068A96820F0F00097
:1034F000084360602878C00728D06868012810D089
:103500002168022810D0890700292EDA616821F08D
:10351000030101436160FFF745FE804641F28839AF
:103520000DE021688903EFE78901EDE7FFF73AFE37
:10353000A0EB0801494502D90320BDE8F087606887
:10354000696800F00C00B0EB810FEFD1306800F03B
:103550000700B8420BD9306820F0070038433060CC
:10356000306800F00700B84201D00120E5E7287874
:10357000400705D56068E96820F4E06008436060B2
:103580002878000706D56068296920F4605040EA71
:10359000C100606000F038F86168084AC1F30311A7
:1035A000515CC8400649086006480068FFF71AFEEB
:1035B0000020C2E700200240001002400C63000817
:1035C0000C000020040000200448054900684968F8
:1035D000044AC1F30221515CC84070470C0000202E
:1035E000001002401C63000804480549006849684F
:1035F000044AC1F3C221515CC84070470C0000204E
:10360000001002401C63000812A185B00FC98DE8AC
:103610000F0014A0144A006804905168134801F088
:103620000C03042B10D0082B0ED1C1F38343C90324
:103630001DF803000AD5516804AAC1F34041515C4A
:103640000A4A5043B0FBF1F005B0704708494843BF
:10365000FAE7000002030405060708090A0B0C0D2F
:103660000E0F1010010200000010024000127A003C
:1036700000093D002DE9F84F040070D02078C04DBE
:10368000C00749D06868C0F38100012807D0686886
:10369000C0F38100022809D16868C00306D52868F4
:1036A000800339D560680028E7D035E06068B0F560
:1036B000803F0BD010B1B0F5A02F11D0286820F4B6
:1036C00080302860286820F4802002E0286840F4D8
:1036D00080302860606890B1FFF764FD06460AE01C
:1036E000286840F480202860F0E700BFFFF75AFD0B
:1036F000801B642873D828688003F7D50CE0FFF797
:1037000051FD064605E000BFFFF74CFD801B642815
:10371000F0D828688003F7D420789A4E80074FF0BD
:1037200001094FF0000839D5686810F00C0F07D078
:103730006868C0F38100022809D16868C00306D414
:103740002868800714D52069012808D110E0206975
:10375000B0B1C6F80090FFF725FD074605E00AE185
:10376000FFF720FDC01B0228C4D828688007F7D5C2
:103770002868616920F0F80040EAC10028600DE087
:10378000C6F80080FFF70EFD074604E0FFF70AFDCC
:10379000C01B022823D828688007F7D420780007A8
:1037A0002CD57948A169D9B1C0F80090FFF7FAFC8F
:1037B000074604E0FFF7F6FCC01B02280FD8686A32
:1037C0008007F7D571484FF4FA510068B0FBF1F06B
:1037D000009000BF0098411E0091FAD20EE080E0F8
:1037E000C0F80080FFF7DEFC074604E0FFF7DAFCD4
:1037F000C01B022875D8686A8007F7D42078400774
:1038000060D5E8690027C00008D4E86940F080501E
:10381000E861E869012700F0805000905C48016889
:10382000C90513D40168834641F480710160FFF734
:10383000B9FC824606E000BFFFF7B4FCA0EB0A002B
:1038400064284ED8DBF80000C005F5D5E0680128F3
:103850000AD008B1052813D0286A20F00100286298
:10386000286A20F0040002E0286A40F00100286283
:10387000E06841F2883B98B1FFF794FC82460BE088
:10388000286A40F004002862EEE700BFFFF78AFCD8
:10389000A0EB0A0159455AD8286A8007F6D50CE0F2
:1038A000FFF780FC824605E0FFF77CFCA0EB0A01F5
:1038B00059454CD8286A8007F6D41FB1E86920F032
:1038C0008050E861E06988B36968C1F38101022929
:1038D00044D00228C6F8608004D0FFF763FC044699
:1038E00038E034E0FFF75EFC074604E0FFF75AFCDF
:1038F000C01B02282BD828688001F7D4206AB0F5B5
:10390000803F05D16868A16820F4003008436860F2
:10391000D4E908010843696821F474110843686018
:10392000C6F86090FFF73EFC044606E025E000BFC5
:10393000FFF738FC001B022809D828688001F7D55A
:103940001BE000BFFFF72EFC001B022802D903205A
:10395000BDE8F88F28688001F4D40EE00128F7D084
:103960006868226A00F48031914204D1616A00F4EF
:103970007010884201D00120EAE70020E8E700004B
:103980000010024000004242800442420C0000202D
:10399000007000404FF0E0210428086903D020F0B7
:1039A00004000861704740F00400FAE710B5401EBB
:1039B000B0F1807F01D3012010BD4FF0E0246061A1
:1039C0000F21601701F088FF0020A061072020610F
:1039D000002010BD7047704770B590F83C20012A58
:1039E00023D0012480F83C40022280F83D20036867
:1039F0005A689D6822F070060A6832435A600C4B80
:103A000002689A4205D0B2F1804F02D0094B9A4227
:103A100004D1496825F080031943916080F83D4046
:103A2000002180F83C10084670BD022070BD0000E7
:103A3000002C01400004004010B5040003D094F8AD
:103A40003D0010B107E0012010BD002084F83C00CB
:103A5000204600F01FF8022084F83D00211D206858
:103A600001F02EFD012084F8460084F83E0084F821
:103A70003F0084F8400084F8410084F8420084F854
:103A8000430084F8440084F8450084F83D00002099
:103A900010BD000008B501681448B1F1804F14D082
:103AA000134A914220D1C16941F00201C161C0694C
:103AB000002200F00200009001211D20FFF7E2FB30
:103AC0001D20BDE80840FFF7CFBBC16941F00101EF
:103AD000C161C069002200F00100009011461C2065
:103AE000FFF7D0FB1C20ECE708BD000000100240EF
:103AF0000004004090F83D10012901D001207047DA
:103B0000022180F83D100168CA6842F00102CA60D3
:103B100000680A49884205D0B0F1804F02D00849B8
:103B2000884204D1816801F00701062903D00168A9
:103B300041F001010160002070470000002C0140AD
:103B40000004004070B5044690F83C00012817D0EE
:103B5000012584F83C50022084F83D0020688268EA
:103B600022F0770222F47F4282600868502830D029
:103B70000DDC20284DD005DC98B310283BD148E05F
:103B8000022070BD302844D0402834D139E060286C
:103B900028D0702806D0B0F5805F2CD0B0F5005F3B
:103BA00029D10AE0CB68D1E90121206801F0B6FCF7
:103BB0002068816841F0770109E0CB68D1E90121F3
:103BC000206801F0ABFC2068816841F4804181608D
:103BD00011E0CA684968206801F0B2FC50212068F1
:103BE00007E016E0CA684968206801F0BAFC602165
:103BF000206801F09DFC84F83D50002084F83C00D2
:103C000070BDCA684968206801F09AFC40212068AC
:103C1000EFE7226801461046EBE7704770B50446AF
:103C2000006801694FF00005C943890715D4C168D0
:103C3000C943890711D4E91E01610120207720685A
:103C400080698007204602D0FFF7E7FF04E000F01C
:103C500098F8204600F096F8257720680169C94356
:103C6000490717D4C168C943490713D46FF0040149
:103C70000161022020772068806910F4407F20468F
:103C800002D0FFF7CAFF04E000F07BF8204600F006
:103C900079F8257720680169C943090716D4C168F6
:103CA000C943090712D46FF008010161042020778D
:103CB0002068C0698007204602D0FFF7AEFF04E00D
:103CC00000F05FF8204600F05DF825772068016974
:103CD000C943C90617D4C168C943C90613D46FF0D4
:103CE00010010161082020772068C06910F4407F2E
:103CF000204602D0FFF791FF04E000F042F8204692
:103D000000F040F8257720680169C943C90708D148
:103D1000C168C943C90704D1891E0161204600F06A
:103D200033F820680169C943090609D4C168C94349
:103D3000090605D46FF0800101612046FFF74AFEB5
:103D400020680169C943490609D4C168C9434906C5
:103D500005D46FF040010161204600F02DF8206885
:103D60000169C94389060BD4C168C943890607D4D0
:103D70006FF0200101612046BDE87040FFF72BBEC7
:103D800070BD70477047000010B5094904460068CF
:103D90000968884201D1FDF721FF064920680968BA
:103DA000884203D1BDE8104001F0B6BE10BD00004E
:103DB0001C010020D40000207047704770470000AD
:103DC000F8B5026804461068D168536910F00F0F07
:103DD0004FF0000553D003F0010601F4907737430C
:103DE0005FD0C20705D0CA0503D5226C42F001029C
:103DF0002264420705D5DA0703D0226C42F00202A2
:103E00002264820705D5DA0703D0226C42F004024F
:103E10002264020707D501F02002324303D0226C4E
:103E200042F008022264226C002A34D0800604D5B5
:103E3000880602D5204601F0C6FB20684069216C47
:103E4000C0F38010090700D430B3204601F0A3FB73
:103E50002068416949061BD5416921F04001416153
:103E6000A06BA8B158494163A06BFEF785FF0028FD
:103E700011D0A06B416B01B0BDE8F040084783064C
:103E80000FD58B060DD52046BDE8F84001F09BBB51
:103E90002046FFF793FFF8BD2046FFF78FFF25640C
:103EA000F8BD266B2023012E52D1C60650D5CE0672
:103EB0004ED5106850680090506940062AD5A16B15
:103EC000086840680004000CEAD0A68D8642E7D955
:103ED000E0858869202818D0D06820F48070D060F0
:103EE0002068416921F0010141612068416921F0A8
:103EF0004001416184F83E3025632068C16821F0AB
:103F00001001C160A06BFEF713FFA08DE18D401A78
:103F100081B219E0A08DE18D401A81B2E08D0028B8
:103F2000BED00029BCD0D06820F49070D06020684A
:103F3000426922F00102426184F83E302563206824
:103F4000C26822F01002C2602046FFF736FFF8BDBB
:103F500005062BD50D0629D594F83D002128F6D16C
:103F6000A068B0F5805F01D12069B0B1206A411C22
:103F70002162216800784860E08C401E0004000C3B
:103F8000E084E4D12068C16821F08001C16020682C
:103F9000C16841F04001C160F8BD206A0088C0F3EB
:103FA00008005060206A801C2062E5E74006F3D5D7
:103FB0004806F1D5D168204621F04001D16084F84F
:103FC0003D3000F00AF9F8BD8755000870B50400CF
:103FD00004D094F83D00002510B106E0012070BD2A
:103FE00084F83C50204600F023F8242084F83D005B
:103FF0002068C16821F40051C160204601F03EFBF9
:104000002068016921F4904101612068416921F033
:104010002A0141612068C16841F40051C1602564F2
:10402000202084F83D0084F83E00002070BD000090
:1040300070B586B0002400940194029403942B4E32
:1040400003682B49022003222A4DB34221D18B69F8
:1040500043F480438B618B6903F4804304938B6941
:1040600043F004038B618969039201F00401049118
:104070000102CDE9001069462846FEF7A1FF281588
:10408000CDE90004694628460294FEF799FF06B080
:1040900070BD194EB342FAD1CB6943F40033CB6102
:1040A000CB6903F4003304938B6943F004038B6101
:1040B0008969039201F0040104910421CDE9001003
:1040C00069462846FEF77CFF0820CDE900046946D2
:1040D00028460294FEF774FF012211462620FFF7BE
:1040E000D1F82620FFF7C0F8D1E7000000380140E2
:1040F00000100240000801400044004090F83E30AB
:10410000202B0ED159B152B190F83C30012B08D080
:10411000012380F83C300023036301F00BBB012036
:1041200070470220704770472DE9F843044690F825
:104130003D001F4616460D4620284CD1C5B1BEB1E4
:1041400094F83C00012846D0012084F83C004FF050
:104150000008C4F84080212084F83D00FFF722F8D1
:10416000A6848146E684A068B0F5805F03D004E0B1
:104170000120BDE8F883206928B12E465FF00005D4
:1041800084F83C800EE00026FAE78021204601F00A
:10419000ECFAA0B9AEB116F8010B21684860E08CCA
:1041A000401EE084E08C4B464FF000020097002850
:1041B000EBD14FF04001204601F0D7FA30B1032097
:1041C000D7E735F8020BC0F30800E6E7202084F8B3
:1041D0003D000020CDE70220CBE77047FEE700005E
:1041E00010B50B4C012240212046FEF7D6FF0122DC
:1041F00080212046FEF7D1FF002280212046FEF7D5
:10420000CCFF20460022BDE810404021FEF7C5BF8C
:10421000000C014010B5094C012240212046FEF758
:10422000BCFF002280212046FEF7B7FF2046012276
:10423000BDE810408021FEF7B0BF0000000C014037
:1042400010B5064C012240212046FEF7A6FF20466D
:104250000022BDE810404021FEF79FBF000C014046
:104260002DE9F04700248A468146DFF848C001273F
:104270001BE0002115E000BF09EB04000CEBC006B9
:104280000AEB010506EBD50605F00708307807FABA
:1042900008F5284201D0A84300E02843491C3070AB
:1042A000C9B29942E8D3641CE4B29442E1D3BDE8B8
:1042B000F08700000202002010B50446012809D052
:1042C0005FF000024FF480610548FEF766FF1CB105
:1042D000012002E00122F5E700200249087010BD2C
:1042E000000C01402000002010B50446007B01288E
:1042F00002D12068FBF7B4FF002020606060A0605E
:10430000207310BD5FF0010200F07F030B70C00945
:1043100009D043F08003521C01F8013B042AF3DD6D
:104320004FF0FF307047104670472DE9F0410446CA
:10433000002500680F462E4610B10220207315E0BC
:10434000012020730846FBF75CFF2060002808D09E
:10435000C4E9016702E0206846556D1CA068A842C8
:10436000F9D8BDE8F081206846556D1CA068A842C8
:10437000F9D866608842F4D22660F2E72DE9FF475B
:10438000174688468146FCF740F984B24046FCF760
:104390003CF90026E01DFBF734FF050025D0E11DA8
:1043A000FCF7A3F912A02246016829608088A88042
:1043B00049462846FCF705F94046FCF726F903462E
:1043C00000200DF1040A012100908AE88300424692
:1043D00029460A2000F042F900B101262846FBF7E1
:1043E0003FFF304604B0BDE8F0870120FAE7000047
:1043F00024637273702F00002DE9FF5F9A46934685
:1044000000251046DDF844900E9F139CFCF7FDF844
:1044100006B2BBF1000F1FD006F111001FFA80F8A1
:1044200007B10225109868B145F00405FCF7EDF8D6
:10443000C7B24846FCF7E9F8C11901EB0800001DB6
:104440001FFA80F80F9870B1012807D0022808D011
:10445000022004B0BDE8F09F0120FAE745F00C050A
:1044600001E045F01405129808B145F024050098C4
:1044700060B3019850B345F0C0070098FCF7C5F849
:1044800005460198FCF7C1F8291801EB0800001D4A
:1044900085B229462046FFF748FF2068C0B129466B
:1044A000FCF723F9D4E90030411C102261601A5452
:1044B000D4E900010144681FFFF724FF00B200287F
:1044C00008DA2046FFF710FF0520C2E70320C0E707
:1044D0000420BEE7616823680844411C6160002233
:1044E0001A54D4E90030421C042162601954D4E902
:1044F0000050421C4D2362602B54D4E90050421CF2
:10450000626051232B54D4E90030451C542265606D
:104510001A54D4E90050431C63602A54D4E9003093
:10452000421C62601954D4E90020411C6160175498
:10453000D4E90030411C4FEA1A2261601A54D4E9D0
:104540000030421C626003F800A0D4E90030411C36
:10455000320A61601A54D4E90020411C616016548B
:10456000D4E90001084432465946FCF72AF860684D
:1045700030446060780736D5B9F1000F01D10FF2F1
:10458000D8091098FCF741F885B2D4E90030411CF5
:104590002A0A61601A54D4E90020411C6160155454
:1045A000D4E9000108442A461099FCF70AF860682B
:1045B000284460604846FCF728F885B2D4E900300A
:1045C000411C2A0A61601A54D4E90020411C616030
:1045D0001554D4E9000108442A464946FBF7F1FF87
:1045E000606828446060380618D50098FCF70DF81C
:1045F00085B2D4E90030411C2A0A61601A54D4E91A
:104600000020411C61601554D4E9000108442A4689
:104610000099FBF7D6FF606828446060780618D5DB
:104620000198FBF7F2FF85B2D4E90030411C2A0A59
:1046300061601A54D4E90020411C61601554D4E92A
:10464000000108442A460199FBF7BBFF6068284433
:1046500060600020FDE60000000000002DE9FF4F33
:1046600081B090464FF00006119C0F9A9A465FEA7F
:10467000000BB146314608D1012005B0BDE8F08FEE
:10468000232816D02B2814D0761C0298805D002891
:10469000F6D141F030070AB147F0010706EB0A05F1
:1046A0000E98AD1C68B1012805D0022806D0032061
:1046B000E3E70220E1E747F0020701E047F00407E3
:1046C000AD1CB8F1000F03D098F80000022807D005
:1046D000691D2046FFF729FE206850B3691D14E0CC
:1046E0005FF0000018F80010401C7D29FAD100F19D
:1046F0000409AAEB0900291A00912046C91CFFF7FA
:1047000014FE2068A8B10099C91CFBF7EEFFD4E99C
:104710000020411C61601754D4E90001014428467F
:10472000FFF7F0FD002806DA2046FFF7DDFD052043
:10473000A3E70420A1E7616823680844411C320A0A
:1047400061601A54D4E90020411C61601654D4E918
:104750000001084432460299FBF733FF6068304499
:1047600060600E9959B12368411C4FEA1B226160B9
:104770001A54D4E90030421C626003F800B0B8F16A
:10478000000F0ED098F800000228D4E90001084478
:1047900009D052464146FBF763FF616801EB0A000E
:1047A0006060002069E74A464146FBF759FF6168AF
:1047B00001EB0900F4E700007FB50D460120089CDD
:1047C0000021CDE90204CDE900011E460A46EB1C9A
:1047D0000CA10A20FFF742FF10B1012004B070BD08
:1047E000D4E90020411C61601654D4E90030411C1A
:1047F0002A0A61601A54D4E90020411C61601554F2
:104800000020EBE724647000F0B50446002001238B
:104810005D05106012E0275C166807F07F0707FB54
:1048200003661660265C360601D4401CF0BDDB0131
:10483000AB4202D36FF00100F0BD401C8842EADBBE
:104840004FF0FF30F0BD2DE9F8430E4607461D46F8
:1048500090462F21801DFBF7AAFE0021009150B346
:10486000441C6A460421781CFFF7CEFF2520FBF785
:10487000C8FC306008B32521FBF737FF242221460E
:104880003068FBF7EDFE009824342C3880B2288085
:10489000401CFBF7B6FCC8F8000080B12988491C11
:1048A000FBF723FF2A882146D8F80000FBF7D8FE43
:1048B0000020BDE8F8830120FBE70220F9E730681B
:1048C000FBF7CEFC0320F4E74178022901D0012058
:1048D0007047817819B1012901D0FF207047C07855
:1048E00070474178022904D1817811B9C0780A282B
:1048F00001D00120704700207047000038B5044601
:104900000078FF210009421E0E2A01D3084638BD57
:104910000328FCD1002000906A460421601CFFF7A8
:1049200073FF20440099401C022907D32278D20744
:1049300004D1028852BA921C8A4201D9FF2038BDA4
:1049400004A1801CFBF74FFE08B10F2038BD0320E7
:1049500038BD000024637265710000003EB500217F
:104960001148009101910F4A029102600124816077
:10497000047301754FF460220461C2614160FDF768
:10498000E1FF08B1FDF7E4FE0720CDE900040220B5
:10499000029069460448FDF7DFFE002801D0FDF7CC
:1049A000D7FE3EBD0024014060000020094808B544
:1049B000416941F0010141614069002200F00100BC
:1049C000009011460B20FEF75DFCBDE808400B206F
:1049D000FEF74ABC001002402DE9F04385B00024E8
:1049E00039480094019402940394816941F01001C4
:1049F0008161816901F010010491816941F0200118
:104A00008161816901F020010491816941F0040113
:104A10008161816901F004010491816941F008011B
:104A200081618069294F00F008004FF4005504901F
:104A3000002229463846FEF7B0FBDFF894800022BA
:104A400020214046FEF7A9FBDFF8889000224FF4B2
:104A500098614846FEF7A1FB0095032601250396C1
:104A6000CDE9015469463846FEF7AAFA202002270C
:104A7000CDE90005CDE9024769464046FEF7A0FAB8
:104A8000A802CDE90005CDE9024769464846FEF790
:104A900097FA2802CDE9000669464046FEF790FAEB
:104AA00018208DE8310069464846FEF789FAC02093
:104AB000CDE90005CDE9024669464846FEF780FA91
:104AC00005B0BDE8F0830000001002400010014076
:104AD00000080140000C014010B586B000241748C2
:104AE000009401940294039404944FF0804105943F
:104AF000016040F2CF21C0E9011440F2F311C0E996
:104B000003148461FEF798FF08B1FDF721FE4FF40E
:104B10008050009069460948FFF714F808B1FDF786
:104B200017FE049404A905480594FEF755FF0028D4
:104B300001D0FDF70DFE06B010BD0000D40000202E
:104B400010B586B000241748009401940294039491
:104B5000049413490594016040F2CF21C0E9011487
:104B600040F2E731C0E903148461FEF765FF08B144
:104B7000FDF7EEFD4FF48050009069460948FEF7BE
:104B8000E1FF08B1FDF7E4FD049404A9054805948C
:104B9000FEF722FF002801D0FDF7DAFD06B010BDB8
:104BA000000400401C0100200C4810B50A490160B7
:104BB0004FF4E1314160002181600C22C160C0E905
:104BC00004128161C161FFF701FA002803D0BDE83A
:104BD0001040FDF7BDBD10BD00380140640100204C
:104BE0000C4810B50A4901604FF4E13141600021E1
:104BF00081600C22C160C0E904128161C161FFF7CC
:104C0000E5F9002803D0BDE81040FDF7A1BD10BDB7
:104C100000440040A8010020FEE7FEE770B506460C
:104C20005FF0000404F1B000C0B2002100F090F881
:104C30000021084600F08CF80021102000F088F8D0
:104C40005FF0000506EBC5000121005D00F080F873
:104C50006D1CADB2802DF5D3641CE4B2082CE1D3F9
:104C600070BD10B50021AE2000F072F8002108469A
:104C700000F06EF80021102000F06AF800214020BA
:104C800000F066F80021812000F062F80021CF20BA
:104C900000F05EF80021A12000F05AF80021C820A1
:104CA00000F056F80021A62000F052F80021A820BC
:104CB00000F04EF800213F2000F04AF80021D320F8
:104CC00000F046F80021084600F042F80021D52007
:104CD00000F03EF80021802000F03AF80021D920B1
:104CE00000F036F80021F12000F032F80021DA203F
:104CF00000F02EF80021122000F02AF80021DB201D
:104D000000F026F80021402000F022F800212020A9
:104D100000F01EF80021022000F01AF800218D207A
:104D200000F016F80021142000F012F80021A42051
:104D300000F00EF80021A62000F00AF80021AF20B4
:104D400000F006F80021BDE81040AF20AFF300806E
:104D500009B100F096BD00F07DBD00002DE9F74FD0
:104D600082B0834604984AE0802833D203990091A8
:104D7000203826494FF00008C0B2464601EB001A21
:104D80000025012700240BEB060900BF1AF80800D4
:104D9000384208D00098204400EBC500C1B209F0A9
:104DA000FF0000F035F87806641C070EE4B2082C0A
:104DB000ECD36D1CEDB208F1010000F0FF08022DEC
:104DC000DFD3761CF6B2082EDAD30BF1080000F020
:104DD000FF0B11E000090FD00498407800090BD0B8
:104DE000DDE903125846FDF721FB0BF1100000F03E
:104DF000FF0B0498801C01E00498401C049000788C
:104E00000028B1D105B0BDE8F08F00003E67000872
:104E1000064A01F0070302EBC00000EBD1020121BA
:104E2000107899400843107070470000020200207B
:104E300030B58BB00024069407940894012524A370
:104E400026A22EA12FA00994FBF732FA06A8CDE9DD
:104E500004400294039400942B021DA21FA127A0DA
:104E60000194FFF7C9FA28B132A0FBF721FA0BB081
:104E7000284630BD079881B20698FDF733FCFA202A
:104E8000FDF72EFB04001DD0FFF738FD022819D1D5
:104E90002046FFF719FD062818D2DFE800F00308C6
:104EA0000A0C0E102CA0FBF703FA00250AE02FA035
:104EB00006E035A004E03DA002E044A000E04CA0E4
:104EC000FBF7F6F906A8FFF70FFAD0E753A0F7E7CC
:104ED000393138313736313836000000374F3956DE
:104EE000706B573D33706A75674D5A6C75755141DB
:104EF0005948483D4538513D0000000035303031BB
:104F0000383200004F6E654E65745F4465764C69BB
:104F10006E6B0D0A50524F49443A2025732C0941BB
:104F20005549463A2025732C0944455649443A25AB
:104F3000730D0A005741524E3A094D5154545F5077
:104F400061636B6574436F6E6E656374204661695F
:104F50006C65640D0A000000546970733A09C1ACB5
:104F6000BDD3B3C9B9A60D0A000000005741524E87
:104F70003A09C1ACBDD3CAA7B0DCA3BAD0ADD2E95F
:104F8000B4EDCEF30D0A00005741524E3A09C1ACC0
:104F9000BDD3CAA7B0DCA3BAB7C7B7A8B5C4636C02
:104FA00069656E7469640D0A000000005741524E35
:104FB0003A09C1ACBDD3CAA7B0DCA3BAB7FECEF1E3
:104FC000C6F7CAA7B0DC0D0A000000005741524ED8
:104FD0003A09C1ACBDD3CAA7B0DCA3BAD3C3BBA73F
:104FE000C3FBBBF2C3DCC2EBB4EDCEF30D0A000091
:104FF0005741524E3A09C1ACBDD3CAA7B0DCA3BADF
:10500000B7C7B7A8C1B4BDD328B1C8C8E7746F6B20
:10501000656EB7C7B7A8290D0A0000004552523A7D
:1050200009C1ACBDD3CAA7B0DCA3BACEB4D6AAB46A
:10503000EDCEF30D0A0000007FB50024054634A034
:1050400000940194029403940088288031480094CD
:1050500001940294039402782FA16846FBF734F977
:1050600069462846FBF7F0FA2E4800940194029412
:10507000039402782CA16846FBF726F96946284676
:10508000FBF7E2FA2B4E0094019402940394727998
:1050900029A16846FBF718F969462846FBF7D4FAB8
:1050A0000094019402940394327926A16846FBF798
:1050B0000BF969462846FBF7C7FA26480094019485
:1050C00002940394006801F031F802460B4622A1D5
:1050D0006846FBF7F9F869462846FBF7B5FA224817
:1050E0000094019402940394027820A16846FBF78F
:1050F000EBF869462846FBF7A7FA1FA12846FBF7FD
:10510000A3FA2846FBF781FA04B0C0B270BD0000D4
:105110007B0000004C000020224175746F223A256C
:10512000642C00004D00002022416C61726D223A17
:1051300025642C00240000202254656D70223A253D
:10514000642C00002248756D6964697479223A25DF
:10515000642C000030000020224D5132223A2530CC
:105160002E33662C00000000200000202272656CA7
:105170006179223A256400007D0000002DE9F041AC
:1051800000248EB080460594069403940494009401
:105190000194ADF8084025462746FFF7AFFB0646C9
:1051A00004282CD00F2E04D0FDF78CF90EB0BDE8EA
:1051B000F08102AB6A4601A94046FFF744FB0500B7
:1051C00004D0FDF77FF9681CF0D021E0DDE9002173
:1051D000BDF8083035A0FBF76BF8DDE9001003AA35
:1051E000FFF7CCF890B93AA0FBF762F8049881B2C7
:1051F0000398FDF777FA03A8FFF776F806E0404634
:10520000FFF76FFB10B938A0FBF752F8FDF75AF91A
:105210003A210098FBF7CBF900283BD06D1C39D020
:105220000AA9401C02E0CA55401C7F1C0278A2F16A
:105230003003092BF7D9CC550846FBF7ABF90546E7
:1052400031A10098FBF7CFF94FF0010870B1304F52
:10525000012D01D02DB11DE00120FFF72DF82DA06B
:105260000FE00020FFF728F82DA010E02FA10098F4
:10527000FBF7B9F970B12F4F012D01D035B109E01D
:105280002DA0FBF715F887F8008003E02DA0FBF7B1
:105290000FF83C700F2E01D0032E87D10198FAF73A
:1052A000DFFF0098FAF7DCFF80E70000636D6469B8
:1052B000643A2025732C207265713A2025732C20C6
:1052C0007265715F6C656E3A2025640D0A000000FE
:1052D000546970733A0953656E6420436D64526576
:1052E00073700D0A00000000546970733A094D5143
:1052F0005454205075626C6973682053656E642045
:105300004F4B0D0A000000005761746572000000E9
:105310004E000020BFAABCCCB5E7C6F70D0A0000BE
:10532000B9D8BCCCB5E7C6F70D0A00004175746F5B
:10533000000000004C000020BFAAC6F4D7D4B6AFCE
:105340000D0A0000B9D8B1D5D7D4B6AF0D0A000008
:1053500030B5A7B0002023902490259004462690D5
:1053600019A0FAF7A5FF802101A8FBF7E0F901A831
:10537000FFF762FE05000BD023A800900323002254
:10538000294619A0FFF718FA70B11AA0FAF790FF92
:1053900027B030BD015DDDE92323D1542499491C98
:1053A000641C24B2249100E001A8AC42F2DB2498F2
:1053B00081B22398FDF796F916A02499FAF778FFA1
:1053C00023A8FEF791FFE3E7546970733A094F6E23
:1053D000654E65745F53656E64446174612D4D5113
:1053E00054540D0A00000000393138313736313855
:1053F000360000005741524E3A094544505F4E6511
:1054000077427566666572204661696C65640D0A4F
:105410000000000053656E642025642042797465A5
:10542000730D0A0070477047FDF7C2BE30B593B0E8
:1054300028216846FBF77BF914210AA8FBF777F9C6
:10544000002501200F9510951195010412958DE806
:10545000230004904FF4E010CDE9081002240794D3
:105460006846FEF707F908B172B6FEE70AA90F20F1
:1054700081E831004FF48060CDE90D0502210AA8D2
:10548000FEF70CF808B172B6FEE74FF40040119039
:105490000F940FA8FDF78CFF002801D072B6FEE72D
:1054A00013B030BD704700000148FEF7B7BB0000E5
:1054B000D40000200148FEF7B1BB00001C01002011
:1054C00070B50268134B144C4FF08046984203D0DD
:1054D000B04201D0A04203D122F070054A682A43AD
:1054E000984203D0B04201D0A04203D122F44074CC
:1054F000CA6822434C6922F08002224302608A6813
:10550000C2620A688262984201D10969016301217D
:10551000416170BD002C01400004004010B584685A
:1055200042EA032224F47F440A432243826010BDEE
:10553000826822F070020A4342F0070181607047DE
:1055400010B5036A046A24F001040462846924F03B
:10555000F00444EA021423F00A020A43846102625E
:1055600010BD10B5036A23F0100303628369046A57
:1055700023F4704343EA023224F0A00343EA01110A
:105580008261016210BD10B5406A0021C185C184ED
:10559000FEF714FC10BD0168CA6822F49072CA605C
:1055A00001684A6922F001024A61016B012904D1B4
:1055B0000168CA6822F01002CA60202180F83E10FB
:1055C00000210163704708B590F83E10222901D0F0
:1055D000022008BD82684FF480539A4201D10169CC
:1055E00021B1816A9A421BD04AB10AE00268816AFD
:1055F0005268C2F308020A80816A891C08E00269C5
:1056000072B10268526802F07F020A70816A491C16
:105610008162C18D491E0904090CC18503D019E0BE
:1056200002685268F1E70168CA6822F02002CA6085
:105630000168CA6822F48072CA6001684A6922F06F
:1056400001024A61202180F83E10016B012903D03C
:10565000FEF769FD002008BD002101630168CA68EA
:1056600022F01002CA6001680A68D20602D50A68F0
:1056700049680091818DFEF7A0FBEBE770B5044609
:1056800000680169E26821F4405111430161216918
:10569000A0680843616908432168CA6841F20C6345
:1056A0009A430243CA6020684169A26921F44071AB
:1056B000114341611E492068884202D1FDF794FFE1
:1056C00001E0FDF781FF00EBC00101EB0012606813
:1056D00064218000B2FBF0F3B3FBF1F36FF0180626
:1056E0007343B2FBF0F5B2FBF0F605EB8305322312
:1056F00003EB0515B5FBF1F5B6FBF1F605F0F0058A
:1057000005EB0615B2FBF0F6B2FBF0F0B0FBF1F0E2
:105710006FF01802504306EB800003EB0010B0FB63
:10572000F1F0216800F00F002844886070BD00008F
:105730000038014081628285C285002101642222F5
:1057400080F83E2080F83C100168CA6842F48072FC
:10575000CA6001684A6942F001024A610068C16892
:1057600041F02001C160002070472DE9F0419846CA
:1057700017460E460446069D1DE0681C1BD02DB141
:10578000FDF710FDA0EB0800A84214D92068C168FD
:1057900021F4D071C1602068416921F001014161AB
:1057A000202084F83D0084F83E00002084F83C006E
:1057B0000320BDE8F0812068006836EA000004D0CC
:1057C0000020B842D9D00020F3E70120F9E700001B
:1057D00007490888802801D300200880054802680E
:1057E000054B08881A54401C08800448FEF7E8BAA4
:1057F0005A0000200444004054060020A801002064
:10580000FEE7000070B5124E0446002240213046EB
:10581000FDF7C3FC5FF0000504F08000802815D080
:10582000002280213046FDF7B8FC6006040E0122FC
:1058300040213046FDF7B1FC002240213046FDF703
:10584000ACFC6D1CEDB2082DE6D370BD0122E8E77B
:10585000000C014010B50446FEF7C2FC7820FFF7AB
:10586000D1FFFEF7EDFC0020FFF7CCFFFEF7E8FCD0
:105870002046FFF7C7FFFEF7E3FCBDE81040FEF748
:10588000C9BC10B50446FEF7ABFC7820FFF7BAFFA1
:10589000FEF7D6FC4020FFF7B5FFFEF7D1FC20460F
:1058A000FFF7B0FFFEF7CCFCBDE81040FEF7B2BC3E
:1058B000490050EAC12018BF04204A0D18BF40F02B
:1058C000010040F2FF72B2EB515F08BF40F00200EE
:1058D000012808BF052070470907090E002804DBCE
:1058E00000F1E02080F80014704700F00F0000F194
:1058F000E02080F8141D704730380A2801D20120BA
:105900007047002070477047704700EB810082604D
:10591000704770B5044640688047E1784A0702D076
:105920002288521C2280B0EBD11F0CD04FF00052C5
:1059300002EBB1114FEAB161C1F3C202E170032A77
:1059400004D360F3C71121F03800E070E07800253F
:1059500000F0070106291ED2DFE801F0031E407B9C
:105960001D98C0F38011B1EBD01FA07820F0F0009B
:105970000FD1A070A16809B1204688472580A07882
:1059800020F00F00401CA070E07820F00700401CC1
:1059900011E08030A07070BDC0F38011B1EBD01F5A
:1059A0000BD0A07820F0F0001030A070E168A1B317
:1059B000204688475EE0E07070BD2088C828FBD98B
:1059C000A07820F0F0005030A070E16909B12046C5
:1059D0008847E07820F00700401DECE7C0F3801115
:1059E000B1EBD01F1AD1A07820F0F000A070A16810
:1059F00009B120468847A0784FF0805101EB301064
:105A00004FEA3070A070216909B12046884725808F
:105A1000E07820F00700C01CCDE72BE020883C2870
:105A2000CAD9A07800F00F01012902D0022906D0BE
:105A30000DE020F0F0003030A070616904E020F04B
:105A4000F0004030A070A16909B120468847E07895
:105A500019E0C0F38011B1EBD01F11D0A07820F075
:105A6000F0001030A070E16809B120468847208816
:105A70003C28ECD22580E07820F00700801C9AE7D3
:105A800021883C2998D920F0070094E7C0F38011C1
:105A9000B1EBD01FA07820F0F00010D16030A070E2
:105AA00020886421B0FBF1F201FB1200002883D1B1
:105AB000216A002980D02046BDE870400847103098
:105AC000A070E168C0E770B50D461646044628216F
:105AD000FAF72DFEA07820F0F0008030A07065600D
